:020000040800F2
:100000000092002059020008131C00084319000840
:10001000111C00081B090008B91E000800000000A0
:100020000000000000000000000000009D0100082A
:100030001D09000800000000F1010008F31C000881
:1000400073020008730200087302000873020008BC
:1000500073020008730200087302000873020008AC
:10006000730200087302000873020008730200089C
:10007000730200087302000873020008730200088C
:10008000730200087302000873020008730200087C
:10009000730200087302000873020008730200086C
:1000A000730200087302000873020008730200085C
:1000B000730200087302000873020008730200084C
:1000C000730200087302000873020008730200083C
:1000D000730200087302000873020008730200082C
:1000E000730200087302000873020008730200081C
:1000F000730200087302000873020008730200080C
:1001000073020008730200087302000873020008FB
:10011000730200087302000873020008ED1D000856
:1001200073020008730200087302000873020008DB
:1001300073020008000000000000000073020008C5
:1001400073020008730200087302000873020008BB
:1001500073020008730200087302000873020008AB
:10016000730200087302000873020008730200089B
:100170007302000873020008000000000000000085
:100180007302000873020008DFF80CD000F062FB75
:1001900000480047C55A0008009200202B4B196800
:1001A0000868B0E8F04F80F30988BFF36F8F4FF015
:1001B000000080F3118870470000000006480068C6
:1001C000006880F3088862B661B6BFF34F8FBFF353
:1001D0006F8F00DF00BF00BF08ED00E0DFF80C000C
:1001E000016841F470010160704700BF88ED00E0D4
:1001F000EFF30980BFF36F8F144B1A681EF0100FD6
:1002000008BF20ED108A20E9F04F106008B44FF0CD
:10021000500080F31188BFF34F8FBFF36F8F06F04C
:1002200017F94FF0000080F3118808BC19680868BE
:10023000B0E8F04F1EF0100F08BFB0EC108A80F34A
:100240000988BFF36F8F704700BF00BF58000020C0
:10025000EFF30580704700000648804706480047D6
:10026000FEE7FEE7FEE7FEE7FEE7FEE7FEE7FEE766
:10027000FEE7FEE7991D0008890100082DE9F05FFF
:100280000546002092469B46884606468146402405
:100290001BE0284641464746224600F021F95346D6
:1002A0005A46C01A914110D311461846224600F012
:1002B00008F92D1A67EB01084F462246012000215C
:1002C00000F0FFF817EB00094E41201EA4F10104D5
:1002D000DFDC484631462A464346BDE8F09F202AE7
:1002E00006DBCB17203A41FA02F043EAE07306E05E
:1002F00041FA02F3D040C2F120029140084319466E
:10030000704710B5431A934209D28318881803E046
:1003100010F8011D03F8011D521EF9D210BD40EA6C
:1003200001039B0703D009E008C9121F08C0042A73
:10033000FAD203E011F8013B00F8013B521EF9D25A
:1003400010BDD2B201E000F8012B491EFBD270476C
:100350000022F6E710B513460A4604461946FFF791
:10036000F0FF204610BD30B504460020034600E0F3
:100370005B1C934203D2E05CCD5C401BF8D030BDE7
:100380002DE9FE4F81EA030404F0004421F000410E
:1003900000944FF0000B23F0004350EA01045ED0BC
:1003A00052EA03045BD0C3F30A54C1F30A552C4448
:1003B000A4F2F3340194A0FB0254C1F3130141F4FD
:1003C0008011C3F3130343F4801301FB024400FBC9
:1003D000034E840A970A44EA815447EA8357A4FBF0
:1003E000076802958D0A05FB07854FEA932C04FBED
:1003F0000C542705029D4FEA065847EA1637B5EB1D
:1004000008056EEB070C870E920E47EA811742EA49
:100410008312A7FB0201B6EB0B0164EB00042B0D6A
:1004200043EA0C335E1844EB1C50DA465146E7FBB6
:100430000201C5F313044FEA0B3343EA14534FEAA6
:100440000432019C43EA0603A4F10C040294009CCC
:10045000CDE900B400F09AF803B0BDE8F08F0020B9
:100460000146F9E700F0004230F000400AD0C10D2B
:1004700001F56071C0F3160042EA0151C20840075D
:100480001143704700200146704701F0004330B42B
:1004900021F0004150EA010206D00A0DA2F5607277
:1004A000C1F31301002A02DC30BC00207047440F66
:1004B00044EAC104C100E01830BC00EBC25000F0B7
:1004C0001FB8202A04DB203A00FA02F1002070470E
:1004D0009140C2F1200320FA03F319439040704782
:1004E000202A04DB203A21FA02F00021704721FA89
:1004F00002F3D040C2F120029140084319467047F0
:100500000029A8BF7047401C490008BF20F0010027
:10051000704710B4B0FA80FC00FA0CF050EA010405
:1005200004BF10BC704749B1CCF1200421FA04F497
:1005300011FA0CF118BF012121430843A3EB0C0170
:10054000CB1D4FEA00614FEA102042BF002010BCD3
:10055000704700EBC35010440029A4BF10BC704783
:10056000401C490008BF20F0010010BC704710B5C6
:10057000141E73F1000408DA401C41F100019218C6
:100580005B411A4301D120F0010010BD2DE9F04D6F
:1005900092469B4611B1B1FA81F202E0B0FA80F2C4
:1005A00020329046FFF78DFF04460F4640EA0A00CE
:1005B00041EA0B0153465A46084313D0114653EA09
:1005C000010019D0C8F140025046FFF789FF0546E7
:1005D0000E46504659464246FFF773FF084305D082
:1005E000012004E020463946BDE8F08D0020054397
:1005F00046EAE0762C4337430A986305E40AA0EB09
:1006000008000022FD0A44EA47540A3002D50020BF
:100610000146E9E7010510196941DDE908450019BE
:100620006941BDE8F04DA2E72DE9FE4F804681EA21
:100630000300C00F0C46009021F0004123F000455C
:10064000B8EB0200A94105D24046214690461C461F
:100650000B46024623F00040104347D0270DC7F356
:100660000A00C3F30A510290401A019040286BDA45
:10067000C3F3130040F4801B0098924620B100237E
:10068000D2EB030A63EB0B0B01985946C0F1400211
:100690005046FFF716FF06460D4650465946019A4A
:1006A000FFF71DFE10EB08006141002487EA11529C
:1006B00084EAE7731A4340D0009A62B3019A012A90
:1006C0004FEA075215DC001B61EB02014FF00042BC
:1006D00002EA0752CDE90042001C41F58011324682
:1006E0002B46FFF753FF03B0BDE8F08F404621468D
:1006F000F9E7001B61EB0201001C41F580130018B3
:100700005B412018A2F5001747EB030140EAD570C2
:10071000B6196D4111E06D084FEA360645EAC0751D
:100720004FEA0752001B61EB0201001C41F58011EA
:1007300049084FEA30000019514132462B4603B0B8
:10074000BDE8F04FFFF713BF0098012240000023DF
:10075000D0EB020263EBE073009821464FEAE074AD
:10076000B8EB000061EB0401E9E783F000435BE7CD
:1007700081F0004158E72DE9F04D81EA030404F0CF
:10078000004B21F0004514464FF0000A23F00041D1
:1007900050EA050220D054EA01021DD0C5F30A57E1
:1007A0000246C5F31303C1F31300C1F30A5640F424
:1007B000801543F48013A7EB0608101BD64608F2F9
:1007C000FD3873EB050002D308F1010801E092182F
:1007D0005B41B8F1000F03DA00200146BDE8F08D5F
:1007E00000204FF48011064684460EE0171B73EB81
:1007F000050705D3121B63EB050306434CEA010C06
:1008000049084FEA300092185B4150EA0107EDD1E8
:1008100052EA030012D082EA040083EA0501084389
:1008200005D0101BAB4106D20122002306E00022B6
:100830004FF0004302E06FF0010253101AEB060084
:100840004CEB085110EB0A0041EB0B01BDE8F04DF9
:10085000FFF78DBE064C074D06E0E06840F001034F
:1008600094E8070098471034AC42F6D3FFF790FCA9
:1008700010770008307700082DE9F04D00231A4664
:100880001B1A8A4103DB00200146BDE8F08DC1F34D
:100890000A52C1F3130141F480154FF0000BD10748
:1008A00002D100186D41521E0027044640F2FF118C
:1008B000384601EB620A3E468046024600204FF46D
:1008C0008011FFF70DFEC2197141BB1846EB010004
:1008D000B4EB030C75EB000C04D3E41A65EB0005D4
:1008E00017460E46241908F101006D418046342850
:1008F000E3DDF91946EB0600091BA84103D24FF0CE
:10090000FF32134601E0002213461BEB070046EBC3
:100910000A51BDE8F04DFFF72ABEFEE77047000020
:1009200070B5044600F0F4F80546601C02D0044897
:100930000078044400F0ECF8401BA042FAD370BDEC
:10094000240000202DE9F84FDFF88C91002209F1F6
:10095000040A0AF1040B4FF00F080BF1040E0126F4
:100960000B6896403340B34271D14C68022C01D0E1
:10097000122C11D1D40800EB84073D6A5407E40E11
:1009800008FA04FC25EA0C05D1F810C00CFA04FCA6
:100990004CEA050CC7F820C007685400032591F8FD
:1009A00004C0A5400CF0030CAF430CFA04FC4CEA65
:1009B000070CC0F800C04F68012F05D0022F03D0EC
:1009C000112F01D0122F11D18768D1F80CC0AF437D
:1009D0000CFA04FC4CEA070CC0F808C04768B7439F
:1009E0000E79C6F3001696403E434660C668AE4395
:1009F0008D68A5403543C5604C68E40065D5374C2B
:100A0000256845F480452560246822F0030504F438
:100A100080440094324C2E19D6F808789407250F9C
:100A200008FA05F4A7432F4CA04201D1002424E08A
:100A30002D4CA04201D101241FE02C4CA04201D139
:100A400002241AE02A4CA04202D1032415E03CE023
:100A5000284CA04201D104240FE0274CA04201D130
:100A600005240AE0254CA04201D1062405E0244CCF
:100A7000A04201D1072400E00824AC403C43C6F862
:100A80000848D9F800404D464E689C43F60300D50F
:100A90001C432C60DAF8004055464E689C43B60370
:100AA00000D51C432C60DBF800405D464E689C433B
:100AB000F60200D51C432C60DEF8004075464E68F7
:100AC0009C43B60200D51C432C60521C102AFFF434
:100AD00046AFBDE8F88F0000003C014044380240BA
:100AE00000300140000002400004024000080240C3
:100AF000000C0240001002400014024000180240A6
:100B0000001C02400AB1816170470904FBE7000044
:100B10000148806870470000240000200248816876
:100B20000278114481607047240000200B4810B502
:100B3000016841F400710160016841F48061016065
:100B4000016841F480710160032000F0B1F80020D9
:100B500000F006F800F03EF8002010BD003C024016
:100B600010B5014688B00022372000F081F8372008
:100B700000F072F813480024016841F02001016080
:100B8000006805A900F020000690684600F03AF9D8
:100B900000F05EF90C494000B0FBF1F10C480B4A43
:100BA000491E026040F2E732C0E90324C0E90114A3
:100BB00000F0DDFD10B1012008B010BD044800F0C8
:100BC000F2FDF9E74038024040420F0000140040B7
:100BD0003C0100201F4808B5016841F480410160D4
:100BE000006800F4804000901A48001F016841F03E
:100BF00080510160006800F080500090032000F0F8
:100C000057F8002211466FF00B0000F031F8002277
:100C100011466FF00A0000F02BF8002211466FF029
:100C2000090000F025F800221146501F00F020F8BE
:100C300000221146101F00F01BF800220F21901E09
:100C400000F016F800220F21BDE80840501E00F009
:100C50000FB800004438024000F01F02012191400B
:100C60004009800000F1E020C0F80011704700004A
:100C7000F0B40E4B1B68C3F30223C3F10704042C2A
:100C800000D904241D1D072D01D2002300E0DB1E26
:100C9000012606FA04F56D1E0D409D409E40761E0D
:100CA000164045EA0601F0BC00F0B4BF0CED00E0D0
:100CB000064A00F0070110684FF6FF03184040EAAB
:100CC0000120034908431060704700000CED00E06C
:100CD0000000FA052DE9F0470D46040065D0DFF865
:100CE0001491D9F80000EFB200F00F00A84207D22B
:100CF00089F80070D9F8000000F00F00A84254D124
:100D000020683D4E810712D5400703D5306840F476
:100D1000E05030602078000703D5306840F4604030
:100D200030603068A16820F0F0000843306020781F
:100D3000C0072DD0304960680839012812D0022838
:100D400013D0032811D00968890700292DDA3168EA
:100D500021F0030101433160FFF7DAFE804641F2E2
:100D6000883A0EE009688903EFE709688901ECE732
:100D7000FFF7CEFEA0EB0801514502D90320BDE8E4
:100D8000F0873068616800F00C00B0EB810FEFD1A4
:100D9000D9F80010484601F00F01A94207D90770A1
:100DA000006800F00F00A84201D00120E7E720789A
:100DB000400705D53068E16820F4E0500843306012
:100DC0002078000706D53068216920F4604040EAA9
:100DD000C100306000F04CF83168084AC1F30311DB
:100DE000515CC840064908600020FFF7B9FE0020AA
:100DF000C5E70000003C024008380240E4670008F4
:100E0000300000200F2202600C4A136803F0030335
:100E10004360136803F0F0038360136803F4E05346
:100E2000C36012684FF4E05303EAD202026104483F
:100E3000006800F00F0008607047000008380240AA
:100E4000003C02400148006870470000300000206C
:100E50000448054900680968044AC1F38221515CCD
:100E6000C84070473000002008380240F46700088E
:100E7000154810B5006810F00C01144813D0144B3D
:100E800004290FD008290ED10F4C241F216801F02E
:100E90003F022168490207D52068C0F38810A0FBF3
:100EA000030106E0184610BD2168C1F38811A1FBBB
:100EB00000010023FFF7E2F92168C1F30141491C59
:100EC0004900B0FBF1F010BD083802400024F400E6
:100ED00040787D012DE9F84F040073D02078BD4D96
:100EE000C00748D0BB4808300168C1F3810101291F
:100EF00008D00068C0F3810002280AD1281D0068CC
:100F0000400206D52868800335D560680028E4D003
:100F100031E06068B0F5803F10D0B0F5A02F2868B0
:100F200010D020F480302860286820F480202860C9
:100F30006068A0B1FFF7ECFD06460CE0286840F4BD
:100F40008030F4E740F480202860F7E7FFF7E0FD09
:100F5000801B642872D828688003F7D50BE0FFF760
:100F6000D7FD064604E0FFF7D3FD801B6428F1D8C7
:100F700028688003F7D42078DFF85C9280074FF070
:100F8000000A3ED593480830016811F00C0F09D0D3
:100F90000068C0F3810002280BD18E48001D006854
:100FA000400206D42868800715D5E068012809D1D9
:100FB00011E0E068B8B10120C9F80000FFF7A8FD12
:100FC000064605E003E1FFF7A3FD801B0228C1D818
:100FD00028688007F7D52868216920F0F80040EAE2
:100FE000C10028600DE0C9F800A0FFF791FD06469A
:100FF00004E0FFF78DFD801B02281FD828688007BA
:10100000F7D42078000722D5724F7449606974378D
:1010100070B101200860FFF77BFD064604E0FFF792
:1010200077FD801B022809D838688007F7D50EE0C5
:10103000C1F800A0FFF76CFD064605E081E0FFF770
:1010400067FD801B02287CD838688007F7D4207899
:10105000400769D5DFF87CB14FF000080BF1400B79
:10106000DBF80000C0000CD4DBF8001041F0805128
:10107000CBF80010DBF800004FF0010800F08050C2
:101080000090574F3868C0050FD4386840F480701E
:101090003860FFF73DFD064604E0FFF739FD801B91
:1010A00002284ED83868C005F7D54A4FA068703777
:1010B00001280FD00528386810D020F001003860D2
:1010C000386820F004003860A068B0B1FFF720FD58
:1010D00006460EE0386840F00100F4E740F00400F6
:1010E0003860F7E7FFF714FD811B41F28830814239
:1010F00065D838688007F5D50DE0FFF709FD06468D
:1011000006E0FFF705FD811B41F28830814256D889
:1011100038688007F5D4B8F1000F05D0DBF800106F
:1011200021F08051CBF80010A069C8B329490831DB
:101130000968C1F38101022949D00228504607D02D
:1011400000E03CE0C9F86000FFF7E2FC044639E04B
:101150004F46C9F86000FFF7DBFC064604E0FFF7E6
:10116000D7FC801B02282AD828688001F7D4D4E94C
:1011700007010843A16A1B4A490802EB0141626A60
:1011800041EA8211084394F82C1040EA01611148A9
:10119000001D016001203866FFF7BAFC044605E037
:1011A00013E0FFF7B5FC001B022808D8286880016F
:1011B000F7D50AE0FFF7ACFC001B022802D9032098
:1011C000BDE8F88F28688001F4D40020F8E70120FA
:1011D000F6E700000038024000004742800E474218
:1011E000007000400000FFFF70B5040005D000252E
:1011F000A56294F8510010B106E0012070BD84F89A
:101200005050204600F030F8022084F85100206849
:10121000016821F040010160D4E901010843D4E9EB
:1012200003121143084361690843218B01F40071E3
:101230000843E1690843216A0843A16A0843216819
:101240000860A069042101EA1040616A084321682E
:1012500048602068C16921F40061C16165650120B1
:1012600084F85100002070BD00B500680E4987B0B9
:10127000884216D10D480021026842F48052026073
:10128000006800F480500590E02000900220CDE935
:101290000101032003900520049069460448FFF7EC
:1012A00051FB07B000BD000000300140443802404F
:1012B000000002402DE9F84F0446406800271E4612
:1012C00091460D464FF0040AB0F5827F01D1A06827
:1012D00088B194F85000012817D0012084F85000FC
:1012E000FFF716FC804694F851004FF0000B0128E0
:1012F0000DD002277BE084F851A0009313460A46E4
:10130000204600F02DF9BDE8F88F0220FBE7002D04
:101310006CD0B9F1000F69D084F851A0C4F854B072
:10132000A563A4F83C90A4F83E90C4F830B0A4F8AB
:1013300034B0A4F836B0C4F840B0C4F844B0A068E3
:101340004FF40049484504D12068016821F48041E8
:10135000016020680168490603D4016841F040013A
:101360000160E068A0B12DE020688168C90706D05F
:10137000007B05F8010BE08F401EE08708E0FEB11E
:10138000701C05D0FFF7C4FBA0EB0800B04217D2D9
:10139000E08F0028E8D118E020688168C90706D0EE
:1013A000C06825F8020BE08F401EE0870AE03EB1DE
:1013B000701C07D0FFF7ACFBA0EB0800B04201D3D4
:1013C000032714E0E08F0028E6D16068B0F5827F43
:1013D0000AD1A068484502D0B0F5806F04D12068DA
:1013E000016821F040010160606D00B1012701201A
:1013F00084F8510084F850B0384684E72DE9F84F5E
:10140000044690F8500000271E4691460D460128DC
:101410000DD04FF0010B84F850B0FFF779FB8046F8
:1014200094F85100BA46012804D0022792E0022025
:10143000BDE8F88F002D79D0B9F1000F76D00320E8
:1014400084F85100C4F854A02563A4F83490A4F89B
:101450003690C4F838A0A4F83CA0A4F83EA0C4F884
:1014600044A0C4F840A0A068B0F5004F04D12068A3
:10147000016841F48041016020680168490603D495
:10148000016841F040010160E068B0F5006F6068FC
:1014900004D020B3E08E012821D039E010B1E08ED5
:1014A000012818D1216835F8020BC86006E02068D1
:1014B0008168890706D535F8021BC160E08E401EA1
:1014C000E08608E086B3701C05D0FFF721FBA0EB97
:1014D0000800B04228D2E08E0028E8D11BE0216845
:1014E00015F8010B087306E020688168890706D5A6
:1014F00015F8011B0173E08E401EE08608E09EB1E6
:10150000701C05D0FFF704FBA0EB0800B0420BD223
:10151000E08E0028E8D13346012202212046CDF892
:10152000008000F097FB10B1032713E011E0424662
:101530003146204600F07EFB18B10127202060656F
:1015400008E0A06818B92068C16880680090606DE4
:1015500000B1012784F851B084F850A0384667E7FD
:101560002DE9F84F044690F850000127DDF8288057
:101570009B4616460D464FF0000901280ED001206B
:1015800084F85000FFF7C4FA824694F8510061686D
:1015900001280CD0B1F5827F07D102E00220BDE81E
:1015A000F88FA16809B9042801D00220A2E045B152
:1015B0003EB1BBF1000F04D094F85100012802D0D5
:1015C00004E0012096E0052084F8510000206065C9
:1015D000A663A4F83EB0A4F83CB02563A4F836B0E6
:1015E000A4F834B02064606420680168490603D41C
:1015F000016841F040010160E068B0F5006F60688B
:1016000004D0D0B3E08E012838D063E010B1E08E72
:1016100001282BD1216835F8020BC860E08E401EEE
:10162000E08623E067B1E08E50B1206881688907C9
:1016300006D535F8021BC160E08E401EE08600270B
:10164000E08F50B120688168C90706D0C06826F8CD
:10165000020BE08F401EE0870127B8F1FF3F05D065
:10166000FFF756FAA0EB0A01414542D2E08E00286E
:10167000D8D1E08F0028D5D132E0FFE7216815F8F6
:10168000010B0873E08E401EE08623E067B1E08E18
:1016900050B120688168890706D515F8011B0173D0
:1016A000E08E401EE0860027E08F50B12068816800
:1016B000C90706D0C06806F8010BE08F401EE0871E
:1016C0000127B8F1FF3F05D0FFF722FAA0EB0A018E
:1016D00041450ED2E08E0028D8D1E08F0028D5D128
:1016E0004346012202212046CDF800A000F0B2FAC4
:1016F00010B10320814610E052464146204600F0DA
:1017000099FA20B120204FF00109606505E0A0683A
:1017100018B92068C16880680090012084F85100E1
:10172000002084F85000484639E74FF0E0210428B3
:10173000086903D020F004000861704740F00400FD
:10174000FAE710B5401EB0F1807F01D3012010BD33
:101750004FF0E02460610F21601700F05BFA002079
:10176000A06107202061002010BD7047704710B5B0
:10177000040003D094F8390010B107E0012010BD37
:10178000002084F83800204600F00CF8022084F88D
:101790003900211D206800F02FFB012084F839005A
:1017A000002010BD70470168CA6842F00102CA609B
:1017B0000068016841F00101016000207047704736
:1017C00070B50446006801694FF00005C9438907F8
:1017D00015D4C168C943890711D4E91E01610120EC
:1017E0002076206880698007204602D0FFF7E7FF57
:1017F00004E000F098F8204600F096F8257620687E
:101800000169C943490717D4C168C943490713D4BB
:101810006FF004010161022020762068806910F4D5
:10182000407F204602D0FFF7CAFF04E000F07BF8BB
:10183000204600F079F8257620680169C943090738
:1018400016D4C168C943090712D46FF008010161B9
:10185000042020762068C0698007204602D0FFF768
:10186000AEFF04E000F05FF8204600F05DF825765A
:1018700020680169C943C90617D4C168C943C906AC
:1018800013D46FF010010161082020762068C06930
:1018900010F4407F204602D0FFF791FF04E000F0F3
:1018A00042F8204600F040F8257620680169C943D7
:1018B000C90708D1C168C943C90704D1891E01619C
:1018C000204600F033F820680169C943090609D4AD
:1018D000C168C943090605D46FF080010161204643
:1018E000FFF743FF20680169C943490609D4C1686D
:1018F000C943490605D46FF040010161204600F05C
:101900001FF820680169C94389060BD4C168C9431F
:10191000890607D46FF0200101612046BDE87040C0
:10192000FFF724BF70BD704770470000006803498F
:10193000884201D1FFF7F2B8704700000014004060
:101940007047FEE773B50B4C0020C4F890024FF6C9
:10195000FF752B4601226946074804F52474FFF7FA
:101960004DFD2B46012201A90348FFF747FD012148
:1019700021607CBD00004042E40000200A4A111FA3
:10198000081F01F093FD084A0A3A911E881E00F0D4
:1019900026F8054A103A911E881E00F007F801202B
:1019A00004F0A5F8EAE70000200000207CB514460A
:1019B0000D4606466B4606223B21002000F028F823
:1019C00000280BD1BDF8001049BA3180BDF80210D3
:1019D00049BA2980BDF8041049BA21807CBD7CB584
:1019E00014460D4606466B4606224321002000F0B1
:1019F0000FF800280BD1BDF8001049BA3180BDF8AE
:101A0000021049BA2980BDF8041049BA21807CBD72
:101A10002DE9FF41104C00201D461646C4F89002E7
:101A20009DF804004FF6FF7740F080008DF8040029
:101A30003B46012201A9094804F52474FFF7DEFCA6
:101A40003B46324629460548FFF734FC0121216018
:101A500004B0BDE8F081000000004042E400002036
:101A60002DE9FF410D4C00201D461646C4F890029A
:101A70004FF6FF773B46012201A9094804F524747B
:101A8000FFF7BCFC3B46324629460548FFF7B6FC4B
:101A90000121216004B0BDE8F08100000000404257
:101AA000E400002010B58AB014220B496846FEF706
:101AB00028FC0021684604F030F8084C064914223E
:101AC0006060143105A8FEF71CFC002105A804F095
:101AD00024F820600AB010BDBC6700080400002094
:101AE000F0B52F4887B00024016841F0040101607F
:101AF000016801F004010591016841F08001016075
:101B0000016801F080010591016841F00101016067
:101B1000016801F001010591016841F002010160D5
:101B2000016801F002010591016841F008010160BE
:101B300000681C4F00F00800059000221021384674
:101B4000FEF7E0FF4FF6FF7603250096CDE901543E
:101B500069461548FEF7F6FE49F60F70CDE9000517
:101B6000694602943846FEF7EDFE102000900120F1
:101B7000CDE90104694638460394FEF7E3FE00967A
:101B8000CDE9015469460948FEF7DCFE0420CDE9A1
:101B90000005694602940648FEF7D4FE07B0F0BD82
:101BA00030380240000002400008024000040240B9
:101BB000000C0240114810B50F4901604FF48271CA
:101BC0004160002102228160C0E9031201224261CA
:101BD000520282611822C0E90721416281620A2112
:101BE000C162FFF701FB002805D0BDE810404F217E
:101BF00003A000F062B910BD00300140E4000020F5
:101C00002E2E2F5372632F7370692E630000000015
:101C1000FEE770470907090E002806DA00F00F00FA
:101C200000F1E02080F8141D704700F1E02080F8FA
:101C30000014704738B50B460092044600228021FC
:101C400000F008F8002804D0606D40F020006065C6
:101C5000032038BD2DE9F0411D4617460E460446C7
:101C6000DDF8188035E0681C33D02DB1FEF750FF49
:101C7000A0EB0800A8422CD32068416821F0E001C5
:101C800041606068B0F5827F0BD1A068B0F5004F6D
:101C900002D0B0F5806F04D12068016821F04001C6
:101CA0000160A06AB0F5005F0AD1206801684DF6B6
:101CB000FF72114001602068016841F40051016029
:101CC000012084F85100002084F850000320BDE872
:101CD000F0812068806836EA000004D00020B84215
:101CE000C1D10020F3E70120F9E7642003F0FFFEF3
:101CF000FBE703F008BF000030B5254893B000258E
:101D0000016841F080510160006800F0805011903E
:101D10002048016841F4804101600068022400F419
:101D20008040119001200090000401908001CDE9D5
:101D30000640192008904FF4A870CDE9090404204A
:101D40000B906846FFF7C6F800B1FEE70CA90F201C
:101D500081E831004FF4A0500F904FF48050109064
:101D600005210CA8FEF7B6FF00B1FEE7FFF76AF801
:101D70004FF47A71B0FBF1F0FFF7E3FC0420FFF7BA
:101D8000D4FC00220F21501EFEF772FF13B030BDAD
:101D900040380240007000401048016841F4700172
:101DA00001600F48016841F0010101600C4A002107
:101DB0000832116002680B4B1A400260031D0A4A88
:101DC0001A60026822F48022026005480C3001602B
:101DD00002495806803908607047000088ED00E02D
:101DE00000380240FFFFF6FE103000240148FFF7E4
:101DF000E7BC00003C010020F0B50268234D244EF2
:101E0000244FDFF894C0254B4FF0804EA84209D0F4
:101E1000704507D0B04205D0B84203D0604501D02C
:101E2000984203D122F070044A682243A8421BD092
:101E3000704519D0B04217D0B84215D0604513D0C4
:101E4000984211D0164CA0420ED0164CA0420BD096
:101E5000154CA04208D0154CA04205D0144CA0420D
:101E600002D0144CA04203D122F44074CA68224329
:101E700002608A68C2620A688262A84201D09842FF
:101E800001D10969016301214161F0BD00000140F8
:101E90000004004000080040000C00400004014025
:101EA000004001400044014000480140001800404B
:101EB000001C004000200040FEE7FEE703B401984C
:101EC0004100009850EAC12018BF04204A0D18BFF5
:101ED00040F0010040F2FF72B2EB515F08BF40F0EA
:101EE0000200012808BF052002B070474100080227
:101EF00018BF04200A0E18BF40F001004FF07F42C7
:101F000032EA010108BF40F00200012808BF0520A5
:101F1000704700000000000070B5C1482DED020BB5
:101F20002DED0E8B82B0119D25F000449FEDBEDBA0
:101F30009FEDBFEB84423EDBA4F140511098A1F12C
:101F40007F6108430FD0BC48844202DC28D110983E
:101F500030B39DED100B02B0BDEC0E8B02B0BDE8AE
:101F6000704000F0F6BD9DED100B53EC1D2B51ECB5
:101F7000100BFEF705FA9DED100B41EC180B53EC1E
:101F80001E2B51EC100BFEF7FBF953EC182BFEF750
:101F90004BFB41EC100B02B0BDEC0E8B02B070BDE0
:101FA000012000F0DBFE02B0BDEC0E8B02B0BDE8FC
:101FB000704000F0E5BDA1489FEDA18B844256DA48
:101FC0009DED100BB4F1795F0ADA51EC100BFFF7BD
:101FD00075FF042808BF00F0E3FD9DED100BDAE764
:101FE00053EC102B51EC100BFEF7CAF941EC190B16
:101FF00095480621B0EE490AF0EE690A784400F0EF
:102000002CFD53EC192B51EC100BFEF7B9F941ECF8
:102010001A0B8E48B0EE490AF0EE690A04217844A2
:1020200000F01BFD53EC192B51EC100BFEF7A8F937
:1020300053EC182BFEF7F8FA41EC100B51EC1A0B8D
:1020400053EC102BFEF797FBCDE900019DED000B43
:1020500053EC102B9DED100B51EC100BFEF790F98B
:102060009DED101B53EC112BFEF7DEFAD2E09DED37
:10207000100B51EC100B01F00DFA53EC182BFEF77E
:1020800077FB9FED730BCDE9000153EC102B9DED19
:10209000000B51EC100BFEF773F941EC190B6E4875
:1020A0000621B0EE490AF0EE690A784400F0D5FC4A
:1020B00053EC192B51EC100BFEF762F941EC1B0BA2
:1020C0006648B0EE490AF0EE690A0421784400F04F
:1020D000C4FC53EC192B51EC100BFEF751F953ECE7
:1020E000182BFEF7A1FA41EC1C0B51EC190B04F074
:1020F0005FF841EC180B5A489FED5BABA04222DC25
:1021000053EC1C2B51EC1B0BFEF735FBCDE900010A
:102110009DED000B51EC180B53EC102BFEF730F932
:1021200053EC182BFEF780FA53EC1A2BFEF728F924
:1021300053EC1D2BFEF719FB53EC1E2BFEF718FB7F
:1021400041EC100B5FE08DED008B002000909DEDC9
:10215000000B51EC180B53EC102BFEF765FA9DEDBC
:10216000000B41EC1E0B53EC102B51EC100BFEF747
:1021700007F953EC192BFEF7FBFA53EC1E2BFEF775
:10218000FAFA41EC190B53EC1C2B51EC1B0BFEF72C
:10219000F2FA41EC1B0B53EC1A2B51EC190BFEF726
:1021A000EFF853EC1D2BFEF7E3FA41EC190B53EC5F
:1021B0001A2B51EC180BFEF7E3F853EC1B2BFEF730
:1021C000DFF853EC192BFEF7D0FA9DED000B41EC34
:1021D000180B53EC1A2B51EC100BFEF7D1F89FEDB6
:1021E000249B53EC192BFEF7C3FA41EC100B51EC76
:1021F000180B53EC102BFEF7B8FA53EC192BFEF723
:10220000B7FA41EC100B002D3FF7C5AE51EC100BA7
:1022100081F0004141EC100BBDE600000000000021
:102220000000F03F00000000075C143326A6913C3C
:10223000182D4454FB21F93F0000F07F0000E03FDF
:10224000000000000000F03FE8550000F6550000D7
:10225000000000000000E03F3A5500004855000033
:102260003333EF3F0000000000000000000000409A
:10227000182D4454FB21E93F70B59B482DED020B0E
:102280002DED068B079D25F00044A04218DC9748F1
:10229000844202DC0AD1069840B19DED060BBDECEC
:1022A000068B02B0BDE8704000F053BC002DCCBFDF
:1022B0009FED8F0B9FED900BBDEC068B02B070BDB8
:1022C0008F48A04215DD8F48A042D8BF4FF0FF34A1
:1022D00058DD9DED060B51EC100BFFF7EFFD0428C8
:1022E00008BF00F05DFC9DED060BBDEC068B02B057
:1022F00070BD9DED060B51EC100B01F0CBF8CDE954
:10230000060181489FED828BA0423CDD8248A042BD
:102310001FDD00249FED82AB9DED060B53EC1A2BC5
:1023200051EC100BFEF780F99DED060B41EC190BFB
:1023300053EC1A2B51EC100BFEF722F853EC182B30
:10234000FEF713FA53EC192BFEF715FACDE9060147
:1023500049E09DED060B012453EC182B51EC100BBA
:10236000FEF762F99DED060B41EC190B53EC182BAF
:1023700051EC100BFEF7F9F953EC192BFEF7FBF9B2
:10238000CDE906012FE06848A0421FDD02249FED41
:10239000689B9DED060B53EC192B51EC100BFDF7D0
:1023A000EFFF53EC182BFEF73FF99DED060B41ECC8
:1023B000180B53EC192B51EC100BFEF7D6F953EC1C
:1023C000182BFEF7D8F9CDE906010CE09DED060BC0
:1023D000032453EC102B9FED580B51EC100BFEF720
:1023E000CAF9CDE906019DED060B53EC102B51EC1B
:1023F000100BFDF7C5FF41EC180B53EC182BFDF744
:10240000BFFF41EC190B4E480621B0EE490AF0EE31
:10241000690A784400F021FB53EC182B51EC100BA7
:10242000FDF7AEFF41EC180B4648B0EE490AF0EE5E
:10243000690A0521784400F010FB53EC192B51EC8C
:10244000100BFDF79DFF41EC100B51EC180B53ECFA
:10245000102B002C0EDAFEF7E7F89DED061B53EC6F
:10246000112BFDF78DFF9DED061B53EC112BFEF795
:102470007FF935E0FEF7D8F89DED061B53EC112BE4
:10248000FDF77EFF41EC100B2F48784400EBC400B1
:1024900090ED001B51EC100B53EC112BFEF765F97E
:1024A0009DED061B53EC112BFEF75FF941EC100B71
:1024B0002648784400EBC40090ED001B51EC100B53
:1024C00053EC112BFEF754F941EC100B002DA2BF79
:1024D000BDEC068B02B070BD51EC100B81F00041D9
:1024E00041EC100B01E70000000010440000F07FF9
:1024F000182D4454FB21F93F182D4454FB21F9BFFA
:102500000000DC3F0000203E0000F33F0000000020
:10251000000000000000F03F0000E63F0000000067
:1025200000000000000000400080034000000000A8
:10253000000000000000F83F000000000000F0BFB5
:102540008A52000040520000CA510000825100002F
:1025500070B56B4E2DED040B2DED028B82B0DDF8C6
:102560001CC0DDE905235C422CF000411C4341EA1C
:10257000D474049D22F00040B44205D86C422C4330
:1025800040EAD474B4420BD99DED061B9DED040BBB
:1025900002B0BDEC028B04B0BDE8704000F0E3BABD
:1025A000ACF14054A4F17F641C430BD0022404EA34
:1025B000AC7444EAD27405439FED538B9FED542BCA
:1025C00007D015E09DED040B51EC100B00F0CEFD93
:1025D00042E0002C11BF012C9DED040B02B0BDECBC
:1025E000028B04BF04B070BD022C38D0032C3BD04A
:1025F0000B439FED491B9FED4A0B0AD0B14218D106
:10260000B04209D121F0804120F08040079105902F
:102610000FE0002A15DA10E0434B7B44002C08BF82
:1026200093ED000B0DD0012C10D0022C17D0032CF1
:102630001AD0B0421DD1002A03DAB0EE410AF0EE02
:10264000610A02B0BDEC028B04B070BD93ED000BCB
:1026500051EC100B81F0004141EC100BF1E7B0EEB2
:10266000480AF0EE680AECE7B0EE420AF0EE620AC1
:10267000E7E7401A00153C28C8BF8DED000B19DCB8
:10268000BCF1000FBEBF10F13C0F9FED290B8DED8B
:10269000000B0FDB9DED060B53EC102B9DED040B97
:1026A00051EC100BFEF767F800F0F4FE00F05EFD51
:1026B000CDE90001002C08BF9DED000BC1D0012C1D
:1026C00010D0022C9FED1C0B53EC102B9DED000B3A
:1026D00051EC100B0DD0FEF748F853EC182BFEF719
:1026E00044F8B9E7019880F0004001909DED000B9F
:1026F000A7E7FEF73AF853EC182BFEF739F8ABE7EB
:102700000000F07F00000000182D4454FB21094018
:10271000182D4454FB2109C0182D4454FB21F9BF46
:10272000182D4454FB21F93FB25000000000000076
:102730000000000000000000075C143326A6A13C46
:1027400010EE101A08B5444A6846B2EB410F28D97A
:102750004FF0E640B0EB410F94BF00204FF0FF3048
:1027600000900098002861DB60EE000A10F0010F75
:1027700045D010F0020FDFED391A9FED391A00EE47
:10278000E11ADFED381A40EE811A21EEA01AF0EEC0
:10279000400A40EE010A08BFF1EE600AB0EE600A9E
:1027A00008BD314B21F0004293423CD911F0004F5B
:1027B000DFED2E0A20EE201ADFED2D0A19BF31EED3
:1027C000601A71EE200A31EE201A71EE600ABDEE39
:1027D000E01A11EE100A9FED271A00F0030000EE38
:1027E000C10A9FED251A009000EEC10A9FED231A41
:1027F00000EEC10A9FED221A00EEC10AB1E79FED7B
:10280000211A9FED210A10F0020F00EE810A9FEDC0
:102810001F1A00EE801AB7EE000A00EE810A18BFF8
:10282000B1EE400A08BD00F0DFF99AE710EE100A99
:102830004000B0F17F4F3CBFB7EE000A08BD07D1A2
:102840004FF0010000F08AFABDE8084000F0BCB982
:10285000BDE8084000F0B4B9B61F927E336D4C3924
:10286000DA82083CA0AA2ABE490E494683F9223FD3
:102870000000004B0000C93F00A0FD390020A2333A
:102880001A61342CB93AB2BACA9F2A3DDDFFFFBEA5
:1028900000B510EE101A2DED028B81B0524A684639
:1028A000B2EB410F2ED94FF0E640B0EB410F94BF91
:1028B00000204FF0FF3000900098B0EE408A0028D2
:1028C0006ADB10F0010F4BD068EE080A9FED471A43
:1028D0009FED470A00EE810A9FED461A10F0020FA5
:1028E00000EE801AB7EE000A00EE810A02BF01B0C6
:1028F000BDEC028B00BD00BF01B0B1EE400ABDECE3
:10290000028B00BD3C4B21F00042934241D911F0B3
:10291000004FDFED3A0A20EE201ADFED390A19BF29
:1029200031EE601A71EE200A31EE201A71EE600A63
:10293000BDEEE01A11EE100A9FED321A00F003000E
:1029400000EEC10A9FED301A009000EEC10A9FED23
:102950002F1A00EEC10A9FED2E1A00EEC10AABE756
:1029600028EE080A9FED2B1ADFED2B0A10F0020F5C
:1029700040EE410A9FED291A00EE201A61EE000A8E
:10298000B0EE480A08EE200AB6D101B0BDEC028BC9
:1029900000BD00F029F98FE718EE100A4000B0F1F1
:1029A0007F4F0DD218EE100AFFF7A0FA042808BFD7
:1029B00000F012F9B0EE480A01B0BDEC028B00BD88
:1029C00009D1012000F0CAF901B0BDEC028B5DF81D
:1029D00004EB00F0F9B801B0B0EE480ABDEC028B90
:1029E0005DF804EB00F0ECB8B61F927EB93AB2BACB
:1029F000CA9F2A3DDDFFFFBE490E494683F9223FAB
:102A00000000004B0000C93F00A0FD390020A233A8
:102A10001A61342C336D4C39DA82083CA0AA2ABEE4
:102A200010B52DED028BB1EEC08A18EE100A20F021
:102A30000040C0F1FF40C00F0AD010EE100A20F095
:102A40000040C0F1FF40C00F04BF012000F086F934
:102A5000B0EE480ABDEC028B10BD70B504462DEDFA
:102A6000028B4D1E00EBC500B0EE408AF0EE608A8E
:102A700090ED000B35F0060017D053EC182B51ECFD
:102A8000100BFDF77DFC41EC100B6D1E04EBC50037
:102A900090ED001B51EC100B53EC112BFDF7C4FD16
:102AA00041EC100B35F00600E7D1022D36D0042D95
:102AB0001CD0062D1CBFBDEC028B70BD53EC182B37
:102AC00051EC100BFDF75CFC94ED0A1B53EC112B41
:102AD000FDF7AAFD53EC182BFDF752FC94ED081BF3
:102AE00053EC112BFDF7A0FD41EC100B53EC182B10
:102AF00051EC100BFDF744FC94ED061B53EC112B2D
:102B0000FDF792FD53EC182BFDF73AFC94ED040B06
:102B100053EC102BFDF788FD41EC100B53EC182BF8
:102B200051EC100BFDF72CFC94ED021B53EC112B18
:102B3000FDF77AFD53EC182BFDF722FC94ED001BFA
:102B400053EC112BFDF770FDBDEC028B41EC100B2B
:102B500070BD10B553EC102B51EC100BFDF764FD5C
:102B600041EC100B10BD10B553EC112B51EC100BB8
:102B7000FDF75AFD41EC100B10BD000000000000F5
:102B80009FED050B10B553EC102B51EC100BFDF71E
:102B9000F2FD41EC100B10BD000000000000000031
:102BA0009FED050B10B553EC102B51EC100BFDF7FE
:102BB000E7FB41EC100B10BD00000000000000100E
:102BC00030EE000A70470000DFED020A80EEA00A36
:102BD00070470000000000009FED020A20EE000A8E
:102BE00070470000000000102DE9F0014FF07F4217
:102BF000B2EB410F9FBF4FF0FF310160BDE8F00124
:102C000070474FF0004242EA0123C1F3C752783ABD
:102C1000551112F01F0C434CCCF120067C44C1F33B
:102C2000C752A2F178024FEA621204EB820254F812
:102C3000254008BFD2E9015612D0556804FA0CF4B9
:102C400025FA06F73C43976805FA0CF527FA06F8CB
:102C5000D26807FA0CFCF24045EA08054CEA020685
:102C6000A4FB034CA5FB0352A6FB03631D449D423A
:102C700034BF012600261319334416B1934202D9FA
:102C800003E0934201D2012200E00022624402F1FB
:102C9000200C9206DC0C42EA443200EE102A5B0360
:102CA000DFED210AF8EEC01A00EE103A4FEA9C1C44
:102CB00011F0004FB8EE400AC0F800C020EE201A14
:102CC00000EE105ADFED190AB8EE400A20EE200A95
:102CD00071EE810A70EE800A10EE902A02F5006211
:102CE0006FF30B0200EE902A70EEE11A31EEC11A7A
:102CF000DFED101A30EE411A9FED0D0A20EE800A2A
:102D000001EE210A9FED0C1A00EE810A04BFBDE816
:102D1000F0017047CCF180510160BDE8F001B1EEE7
:102D2000400A7047B84A0000000000360000802CBE
:102D300022AAFD29DB0FC92F0000C92F02E008C815
:102D4000121F08C1002AFAD170477047002001E025
:102D500001C1121F002AFBD1704700000149086021
:102D600070470000E00000202DE9F043044690F891
:102D700066004FF0FF3685B0B04600287ED094F84C
:102D8000A400002872D16B4602227721204602F06F
:102D9000F0F8BDF800006B4640BAADF8040002221E
:102DA0007A21204602F0E5F8BDF800006B4640BAF3
:102DB000ADF8060002227D21204602F0DAF88046B6
:102DC000BDF80000002140BAADF80800A26F01254F
:102DD000002A00DA5242606F002800DA4042824244
:102DE00000DD0121E26F002A00DA524204EB81008B
:102DF000406F002800DA4042824200DD022104EBED
:102E00008100406F002800DA354600200DF10409EA
:102E100004EB800339F81070D3F88C20D61702EB3E
:102E20005672A7EBE202C2F34E02560004EB4002D8
:102E3000A2F89E605B6F4FEAE37C03EB5C73A7EB49
:102E4000E303C3F34E035B00A2F89830884207D136
:102E500006EBC526A2F89E6003EBC523A2F89830C6
:102E6000401C0328D4DB012084F8A40094F84E0011
:102E700003A901280BD0042809D000E004E00228AF
:102E800010D006280ED0404605B0BDE8F0830020E3
:102E900004EB4002B2F89E2021F81020401C0328C9
:102EA000F6DB09E0002004EB4002B2F8982021F89C
:102EB0001020401C0328F6DBBDF80C006B46010A0D
:102EC0008DF800108DF8010002227721204602F0D3
:102ED00070F80646BDF80E006B46010A8DF800102A
:102EE0008DF8010002227A21204602F062F840EAC1
:102EF0000605BDF810006B46010A8DF800108DF82C
:102F0000010002227D21204602F053F82843BBE74E
:102F1000F8B590F83F100546082906D003DD1029C2
:102F200005D0202905D0002404E0012402E0022479
:102F300000E003246B4601221D2102F01AF8064628
:102F40009DF8000020F037008DF80000284601F0C1
:102F5000A2FE800706D59DF8000040F0070040EA79
:102F600004100FE095F845109DF80000062904D9DB
:102F700040F001008DF8000002E001438DF80010E0
:102F80009DF800008DF800006B4601221D212846A7
:102F900002F00FF83043F8BD38B505466B46012204
:102FA0001C2101F0E6FF04469DF8000095F8421050
:102FB00020F0180040EAC1008DF800006B460122A5
:102FC0001C21284601F0F5FF204338BD7FB504469B
:102FD00090F866004FF0FF3500280CD094F84E2092
:102FE000002101AB032A08D0042A06D0052A09D003
:102FF000062A07D0284604B070BD04EB8100D0F843
:10300000800002E004EB8100806E43F82100404222
:10301000C61700EB9670801043F82100491C032965
:10302000E0DB01986B46000A8DF8000001988DF8EE
:10303000010002221321204601F0BBFF0546029841
:103040006B46000A8DF8000002988DF801000222FC
:103050001521204601F0ADFF054303986B46000A99
:103060008DF8000003988DF80100022217212046F8
:1030700001F09FFF2843BEE72DE9FC41064601AB66
:1030800001221B2101F075FF04469DF8040020F089
:1030900018008DF80400304601F007FE9DF804107A
:1030A00001AB41EAC0008DF8040001221B2130462B
:1030B00001F07FFF96F83E1040EA0405102917D072
:1030C00008DC01290CD002290CD004290CD00829D5
:1030D00006D10BE020290DD040290DD080290DD03C
:1030E00000240CE001240AE0022408E0032406E0A6
:1030F000042404E0052402E0062400E007246B46D3
:1031000001221E21304601F034FF40EA05079DF8F8
:1031100000006B4620F0700040EA04108DF80000BB
:1031200001221E21304601F044FF40EA07056B46AC
:1031300001221A21304601F01CFF40EA05049DF8E7
:10314000000020F007008DF80000304601F0AAFDD5
:103150009DF800106B4608438DF8000001221A21EB
:10316000304601F026FF2043BDE8FC8110B541EC5C
:10317000100BFFF781F851EC100B10BD6B2817D026
:103180000CDC1E2814D004DC192811D01D280DD108
:103190000EE037280CD0382808D109E06C2807D079
:1031A000722805D0732803D0742801D001207047FD
:1031B000002070472DE9F84F1D0014468846074649
:1031C00001D0002028606946384600F036F810B17A
:1031D000C7F8A8000DE0009E5EB14FF0FF3A4645EB
:1031E0000AD9384600F0A9F8C7F8A8A00DB1012007
:1031F00028600020BDE8F88FA146002415E0301BB0
:10320000102800D910201FFA80F809EB0403424669
:103210007421384601F0ADFE050005D0384600F0B7
:103220008CF8C7F8A8A002E04444B442E7D315B133
:10323000C7F8A850DDE70098DCE7F8B50C000646B3
:103240004FF0FF3509D06B460222722101F091FE4A
:1032500028B10021C6F8A85008E02846F8BD9DF81E
:103260000010090221609DF8012011442160F8BD81
:103270004FF4E770088070472DE9F04107460E468D
:10328000480401D5012100E00021384602F07AFB14
:103290000546B00406D50121384602F08BFB40EA12
:1032A000050405E00021384602F084FB40EA0504ED
:1032B000700501D5012100E00021384602F092FBA3
:1032C0002043BDE8F081C90501D5012100E00021BE
:1032D00000F0EABA7CB5164600220546009201923B
:1032E00031B1012909D005290CD0082913D10EE0EC
:1032F0004FF438704FF43A740DE04FF439704FF4D6
:103300003B7408E040F2D22040F2DA2403E040F2BD
:10331000D62040F2DE2481B26B460222284602F01B
:10332000B1FA01A9304600F099FA0346A1B202228F
:10333000284602F0A7FA00207CBD2DE9FC5F044678
:1033400000264FF400703546374601908DF8006036
:1033500004F1390B4FF004094FF0080A94F83900D2
:103360005B4620F0C00084F8390001226A21204623
:1033700001F01FFE40EA0508052002F055FA8DF81D
:1033800000906B4601226A21204601F012FE40EABD
:1033900008058DF800A06B4601226A21204601F045
:1033A00008FE40EA0508022002F03EFA84F8AC70FC
:1033B00001A92046FFF741FF40EA0800050011D1AE
:1033C000761C0198F6B208B1062EC7D394F83900DE
:1033D0005B4640F0C00084F8390001226A21204693
:1033E00001F0E7FDBDE8FC9F30B587B000220092F8
:1033F000CDE901014FF480400390049001200A4D73
:1034000005906C46F0212846FCF7A2FF18222146C1
:103410002846FCF776FF00F0BFF900F0A1F9012083
:1034200002F0B4FD07B030BD683E00202DE9FC4736
:103430000024984615460E468146671E24E014482F
:103440004346204401AA694600F04EF80146301B6D
:1034500088421BDBBDF80000BDF8042050B146F2E5
:10346000487330EA030305D1000709D512B132F4DD
:10347000C04005D04846FFF760FF3846BDE8FC87EE
:1034800028880C44401C2880B442D8DB0020F5E793
:103490000040002082B0CDE9000121F00040019001
:1034A0009DED000B02B051EC100B704770B5144647
:1034B0000D46064600F01EF988B190ED000A86ED33
:1034C000000A90ED010A85ED000A90ED020A054818
:1034D00084ED000A0168491C0160002070BD0120D4
:1034E00070BD00000000002070B5054602202C8849
:1034F00064BA0C80640409D508203BB15C88641C64
:103500005C80B3F85440641CA3F854400C88A404B5
:1035100013D5801D002B03D01C8C04F101041C84E6
:1035200000F10C0009D01C8904F101041C81B3F8DE
:10353000564004F10104A3F856400C88640504D5F4
:103540000E3013B1DC8B641CDC830C88A60500D51F
:10355000801D640604D50C3013B11C89641C1C81C9
:103560000C88E40504D5801D13B19C8C641C9C84DC
:103570000978090704D56988801C49BA118001E0DF
:103580000021118089B24A0400D5801C890400D52D
:10359000801C70BD10B500202DED0A8B84B0109BEF
:1035A00000900190029003904E48405C0F287CD11F
:1035B000102219466846FCF7A4FE9DED010AB8EEFC
:1035C000009ADDED030A20EE090AB0EE00AA9DED97
:1035D000021A20EE200ADDED000A60EE8A0A00EEF3
:1035E000810A10EE100AFCF73DFF41EC100BFEF7CC
:1035F00093FC9FED3D8B51EC100B53EC182BFCF71B
:10360000BFFEFCF742FF3A4C6060DDED01AA2AEEF6
:10361000890A60EE2A0A9DED020A20EE0ABA4BEEF4
:10362000400AB7EE000A30EE800A10EE100AFCF7EE
:1036300019FF9DED030ADDED000A41EC190B2BEE9D
:10364000000A60EE8A0A00EEAA0A10EE100AFCF7E1
:1036500009FF41EC100BB0EE491AF0EE691AFEF7C3
:1036600077FF53EC182B51EC100BFCF789FEFCF79D
:103670000CFFA060DDED00AA9DED01BADDED02BA00
:103680002AEEAA0A9DED03CA0BEE0B0A0BEEEB0A1B
:103690000CEE4C0A10EE100AFCF7E4FE2BEE2B0A9F
:1036A00041EC190B0AEE8C0A00E016E020EE0A0A43
:1036B00010EE100AFCF7D6FE41EC100BB0EE491AE2
:1036C000F0EE691AFEF744FF53EC182B51EC100B87
:1036D000FCF756FEFCF7D9FE206004B0BDEC0A8B67
:1036E00010BD0000A40000206666666666A64C4019
:1036F000583F002008B50020ADF800006946084892
:1037000001F0F2FABDF9000040F60241084006D08F
:10371000044A0021024801F0A3FC0148F03008BD32
:10372000683E00209535000810B500F00BF8BDE8A4
:10373000104002490248FFF757BE00005138000808
:103740004538000810B580216B20FEF7FBF8642097
:10375000FDF7E6F80021BDE810406B20FEF7F2B857
:1037600010B50B4C606800F0B5F80146094801F04F
:10377000BFFE002800DAFEE7A06801F0A0FA0146CB
:10378000044801F0D5FF002800DAFEE710BD000074
:1037900094000020683E002038B5FF208DF800001E
:1037A0006946254801F087FA002800DAFEE7234938
:1037B00000209DF800300A5C9A4203D0401C10F0B3
:1037C000FF00F6D0012806D01D491B4801F059FA28
:1037D000002801DAFEE7FEE7174800F091F8A0B1F3
:1037E000154801F0A1FA00241549E2B21731124838
:1037F00001F0A8FF641C062CF6DB10490E48491C9A
:1038000001F0AEFA002800DAFEE7142201210A488E
:1038100001F0D0FF002800DAFEE71422022106485A
:1038200001F0C8FF002800DAFEE7054944F62060F1
:10383000491EC860002038BD683E0020FC670008B3
:10384000950000201046DAB203460020FEF7E0B8EB
:103850001046DAB203460020FEF702B9020A0A70E7
:103860004870084670470A8852BA02804A8852BA9D
:103870004280898849BA818070470A68CB7812BA39
:1038800022F0FF021A4302604A68CB7912BA22F092
:10389000FF021A4342608A68C97A12BA22F0FF0214
:1038A0000A4382607047000008B509A212680092BE
:1038B00031B9F1218DF800108DF801108DF802104A
:1038C0006B4603224FF4C26101F0DCFF08BD00002B
:1038D000C2C5C700B0F5FA6F0AD0B0F57A6F09D04B
:1038E000B0F5FA5F08D0B0F57A5F07D004207047D2
:1038F0000020704701207047022070470320704766
:10390000016D11B990F8670008B1002070470120DF
:10391000704730B5044600680D46014600F0CAF90C
:10392000C0F180426068014600F0C4F9121AA06834
:10393000014600F0BFF9101A00F030F82860206846
:1039400068606068A860A068E860002030BD10B5BD
:1039500014462DED028B84B0B0EE408A6A46B0303A
:1039600000F0AEF99DED000AB8EEC00A20EE080A9C
:1039700084ED000A9DED010AB8EEC00A20EE080AA7
:1039800084ED010A9DED020AB8EEC00A20EE080A95
:1039900084ED020A04B0BDEC028B10BD2DE9F141AB
:1039A00081B00198002802DC0020BDE8FC81DFF82E
:1039B000AC804FF0C0444FEA6805694601A800F0AA
:1039C00001FA064600980023002804DD00EBD071C0
:1039D00021F00101431AC01A00900198A0F180471C
:1039E000394600F067F90199022EA1EB600220DB55
:1039F000C4EB6701384600F05DF90146384600F037
:103A000059F947103946104600F054F9A2EB60020C
:103A1000032E0ED1C4EB6701384600F04BF9014686
:103A2000384600F047F94110104600F043F9A2EB88
:103A3000600223B12946104600F03CF90246009886
:103A4000002802DD4010024106E0401C04D141463E
:103A5000104600F02FF902461046A6E79A79825ADE
:103A6000014600200A6812B1130C02D004E00020C5
:103A70007047102012040A60130E02D1120208309F
:103A80000A60130F02D11201001D0A60930F02D1C8
:103A90009200801C0A60002AEADA5208401E0A607E
:103AA0007047000010B5F7EE002A2DED068BB5EE3D
:103AB000003A0C4690ED001AD0ED040A90ED080A89
:103AC00031EE222A32EEC11A90ED019AD0ED02AA0F
:103AD00072EE201A32EE602A71EE202A71EE600A30
:103AE00071EE801A32EE402A72EEC02A30EE800A61
:103AF00061EE831A22EE032A62EE832A20EE030A85
:103B000090ED03AAD0ED059AD0ED068A90ED078AD4
:103B100084ED030ADFED660AF5EEC01AC4EC031A61
:103B2000F1EE10FA01D2C4ED000AB5EEC02AF1EEB2
:103B300010FA01D2C4ED010AF5EEC02AF1EE10FA36
:103B400001D2C4ED020AB5EEC00AF1EE10FA01D2BC
:103B5000C4ED030A94ED000AFEF762FF84ED000A4B
:103B600094ED010AFEF75CFF84ED010A94ED020A70
:103B7000FEF756FF84ED020A94ED030AFEF750FFAC
:103B800084ED030A94ED001AD4ED010AB1EE002A87
:103B9000B4EEE01AF1EE10FA1CDBD4ED021AB4EE2A
:103BA000E11AF1EE10FA15DBB4EEC01AF1EE10FADC
:103BB00010DB79EEC80A21EE020A80EE801A78EE58
:103BC000EA0A84ED011A80EE801A79EE4A0A84ED41
:103BD000021A20E0F4EEC10AF1EE10FA22DBD4ED75
:103BE000021AF4EEE10AF1EE10FA1BDBF4EEC00A61
:103BF000F1EE10FA16DB39EEC81A20EE820AC1EE99
:103C0000000AC4ED000A79EE0A0A80EE801A78EE06
:103C1000AA0A84ED021A80EE801A84ED031ABDEC24
:103C2000068B10BDD4ED021AF4EEC11AF1EE10FAB3
:103C30001ADBF4EEE01AF1EE10FA15DBF4EEC01A1E
:103C4000F1EE10FA10DB78EEEA0A21EE820A80EE3D
:103C5000801A79EE0A0A84ED001A80EE801A79EE55
:103C6000880A84ED011AD6E7B4EEC10AF1EE10FA23
:103C7000D5DBB4EEE00AF1EE10FAD0DBB4EEE10AE7
:103C8000F1EE10FACBDB79EE4A0A20EE020A80EE62
:103C9000801A78EEAA0A84ED001A80EE801A79EE76
:103CA000880A84ED011A80EE801A84ED021AB6E7C4
:103CB0000000000080FB0101800F40EA8100704796
:103CC00030B591B0044600201546049007C905ABF5
:103CD00083E807000CAA04A9204601F09BFE206897
:103CE0000090606808AA40420190A068694640427E
:103CF0000290E068404203900CA801F08BFE09ABF3
:103D000093E8070085E8070011B030BD30B51446D0
:103D10000A4688B0054604A91046FFF7FAFD6A4630
:103D200005F1B00104A801F0E9FA00989FED240A1A
:103D300000281ADBDDED010AF8EEE00A60EE800AE9
:103D4000C4ED000ADDED020AF8EEE00A60EE800A3A
:103D5000C4ED010ADDED030AF8EEE00A60EE800A28
:103D6000C4ED020ADDED000A21E00198404200EEB8
:103D7000900AF8EEE00A60EE800AC4ED000A0298AC
:103D8000404200EE900AF8EEE00A60EE800AC4EDD0
:103D9000010A0398404200EE900AF8EEE00A60EE55
:103DA000800AC4ED020A0098404200EE900AF8EE44
:103DB000E00A20EE800A84ED030A08B030BD00005E
:103DC000000080302DE9F04F05461D4E0068770059
:103DD000DFF870A0DFF870B0DFF87080DFF8709067
:103DE0000C46B84204DD401028604FF0FF3016E06A
:103DF000B04213DA2846FFF733FE20602868B84245
:103E000004DB401028602068401E05E0B04207DA5D
:103E1000400028602068401C206001E0002008600D
:103E20002868504501DB584502DD0320BDE8F08FCE
:103E3000404501DB484501DD0220F7E70120F5E7B9
:103E4000FE855C2C9A99993966666646F6285C3F31
:103E50000AD7A34038B505466B4601226A2101F016
:103E600088F804469DF800006B4620F080008DF82D
:103E7000000001226A21284601F09BF840EA04056F
:103E8000052001F0D1FC284638BD38B505466B4603
:103E900001226A2101F06DF804469DF800006B468E
:103EA00020F040008DF8000001226A21284601F030
:103EB00080F8204338BD000028B104490EC980E8CD
:103EC0000E00002070474FF0FF307047643F002025
:103ED00028B104490EC980E80E00002070474FF059
:103EE000FF307047843F002028B104490EC980E8A4
:103EF0000E00002070474FF0FF307047983F0020C1
:103F000040B106498A8D0280CA8D4280098E818027
:103F1000002070474FF0FF3070470000643F0020E2
:103F200038B505466B4601226A2101F022F80446A5
:103F30009DF800006B4640F080008DF800000122E3
:103F40006A21284601F035F8204338BD38B50546CA
:103F50006B4601226A2101F00CF804469DF800002E
:103F60006B4640F040008DF8000001226A2128468F
:103F700001F01FF8204338BD2DE9F0470027044623
:103F8000012A01D141F0100104F1360601F01300BD
:103F9000751CA91E4FF00208894603287ED005DC57
:103FA00058B101287BD002282BD12BE0112877D0E3
:103FB000122876D01328F7D1FEE394F835000B468B
:103FC00040F0400084F8350001226B21204600F0CB
:103FD000F0FF054694F83600334640F03F0084F881
:103FE000360001226C21204600F0E3FF40EA05077D
:103FF00094F8340020F0010084F83400002084F8A4
:104000004E0014E294F84E0007287CD2DFE800F05E
:1040100004B44A5E8C5E8C0094F83600334620F07F
:10402000380040F0070084F8360001226C21204659
:1040300000F0BFFF064694F835004B4620F06000C4
:1040400084F8350001226B21204600F0B2FF40EADF
:10405000060594F8340020F0020040F0010084F8D6
:104060003400022001F0E0FB2046FEF795FF40EA15
:10407000050694F835004B4620F0600084F83500C2
:1040800001226B21204600F094FF40EA060594F8D7
:10409000340020F0020084F83400ABE0C0E2EDE030
:1040A000D4E16FE094F835004B4620F0200084F80E
:1040B000350001226B21204600F07BFF054694F875
:1040C000340020F0020084F8340029E02046FEF796
:1040D00063FF054694F835004B4620F0200084F835
:1040E000350001226B21204600F063FF40EA0507FE
:1040F00094F8340020F0020084F8340094F836007C
:1041000020F0380000E037E040F0070084F8360087
:10411000334601226C21204600F04BFF40EA0705A0
:104120002046FEF7F5FE97E094F835004B4620F068
:10413000200084F8350001226B21204600F039FF71
:10414000054694F83400334620F0020084F8340029
:1041500094F83600012220F0380040F0070084F87F
:1041600036006C21204600F024FF40EA0506204678
:10417000FEF7CEFE304370E084F84E802046FEF716
:10418000F3FD52E194F84E000728F5D2DFE800F085
:10419000053B045267526700EEE794F83600334659
:1041A00020F0380040F0070084F8360001226C212E
:1041B000204600F0FEFE054694F835004B4620F000
:1041C000600084F8350001226B21204600F0F1FEEA
:1041D00040EA050694F8340020F0020040F00100A7
:1041E00084F83400022001F01FFB2046FEF7D4FEC5
:1041F00040EA06052046FEF78BFE40EA050714203C
:1042000001F012FBB8E794F835004B4620F020008F
:1042100084F8350001226B21204600F0CAFE0546D5
:1042200094F8340020F0020084F83400022001F0F9
:10423000FBFA75E72046FEF76BFE054694F836005C
:10424000334620F0380040F0070084F836000122A1
:104250006C21204600F0ADFE284307468CE794F819
:104260003600334620F0380040F0070084F836006E
:1042700001226C21204600F09CFEEEE794F84E00EF
:10428000072843D2DFE800F004437B9DA49FB100E0
:1042900094F837002B4640F0800084F83700012264
:1042A0001E21204600F085FE054694F83600334670
:1042B00020F0070040F0380084F8360001226C211D
:1042C000204600F076FE40EA050694F835004B469D
:1042D00020F0600084F8350001226B21204600F0B8
:1042E00068FE40EA060594F8340020F0020040F031
:1042F000010084F83400022001F096FA2046FEF70F
:10430000BBFE40EA0507322001F08EFA59E094F82E
:1043100037002B4640F0800084F8370001221E2130
:10432000204600F046FE054694F83600334620F05D
:10433000070040F0380084F8360001226C21204646
:1043400000F037FE40EA050694F835004B4620F0B1
:10435000200084F8350001226B21204600F029FE60
:1043600040EA060594F8340020F0020084F8340096
:10437000022001F059FA2046FEF77EFE1FE020469B
:10438000FEF77AFE074694F837002B4640F080008F
:1043900084F8370001221E21204600F00AFE40EA80
:1043A000070594F83600334620F0070040F0380047
:1043B00084F8360001226C21204600F0FAFD2843E3
:1043C0000746032019E12046FEF756FE06461EE08A
:1043D00094F83600334640F0380084F83600012265
:1043E0006C21204600F0E5FDEAE72046FEF744FE9A
:1043F000074694F83600334640F0380084F836001B
:1044000001226C21204600F0D4FD40EA070694F812
:1044100037002B4640F0800084F8370001221E212F
:10442000204600F0C6FD3043CAE73843074694F8FB
:1044300035004B4620F0080084F8350001226B213E
:10444000204600F0B6FD3843BDE8F08794F84E00F2
:10445000072843D2DFE800F004437B9EB0D0D700AA
:1044600094F837002B4620F0800084F837000122B2
:104470001E21204600F09DFD054694F83600334687
:1044800020F0070040F0380084F8360001226C214B
:10449000204600F08EFD40EA050694F835004B46B4
:1044A00020F0600084F8350001226B21204600F0E6
:1044B00080FD40EA060594F8340020F0020040F048
:1044C000010084F83400022001F0AEF92046FEF726
:1044D000D3FD40EA0507322001F0A6F98CE094F8FC
:1044E00037002B4620F0800084F8370001221E217F
:1044F000204600F05EFD054694F83600334620F075
:10450000070040F0380084F8360001226C21204674
:1045100000F04FFD40EA050694F835004B4620F0C8
:10452000200084F8350001226B21204600F041FD77
:1045300040EA060594F8340020F0020084F83400C4
:10454000022001F071F92046FEF796FD1FE020469B
:10455000FEF792FD074694F837002B4620F08000C6
:1045600084F8370001221E21204600F022FD40EA97
:10457000070594F83600334620F0070040F0380075
:1045800084F8360001226C21204600F012FD2843F9
:10459000074631E02046FEF76FFD064694F83700E7
:1045A0002B4620F0800084F8370001221E2120468F
:1045B00000F0FFFC3043EBE72046FEF75DFD0746C9
:1045C00094F83600334640F0380084F83600012273
:1045D0006C21204600F0EDFC40EA070694F8370015
:1045E0002B4620F0800084F8370001221E2120464F
:1045F00000F0DFFC40EA0607052084F84E00204664
:10460000FEF7E4FC11E794F83600334640F038003A
:1046100084F8360001226C21204600F0CAFCB7E77E
:1046200094F84E0007284BD2DFE800F0044B819B42
:10463000EFB1DD0094F837002B4640F0800084F89D
:10464000370001221E21204600F0B3FC054694F8F5
:104650003600334620F03F0084F8360001226C21FA
:10466000204600F0A6FC40EA050694F835004B46CB
:1046700020F0600084F8350001226B21204600F014
:1046800098FC40EA060594F8340020F0020040F05F
:10469000010084F83400022001F0C6F82046FEF73D
:1046A0007BFC40EA05062046FEF732FC40EA0605A0
:1046B0002046FEF7E1FC40EA0507322001F0B4F89D
:1046C000A3E094F837002B4640F0800084F83700D0
:1046D00001221E21204600F06CFC054694F83600AD
:1046E000334620F03F0084F8360001226C2120463A
:1046F00000F05FFC40EA050694F835004B4620F0D8
:10470000200084F8350001226B21204600F051FC86
:1047100040EA060594F8340020F0020084F83400E2
:10472000022001F081F82046FEF7A6FC16E02046A4
:10473000FEF7A2FC074694F837002B4640F08000B5
:1047400084F8370001221E21204600F032FC40EAA6
:10475000070594F8360020F007000FE028430746CD
:1047600053E02046FEF718FC07462046FEF7D0FB34
:1047700040EA070594F8360020F0380084F8360047
:10478000334601226C21204600F013FCE6E7204668
:10479000FEF702FC80462046FEF7BAFB40EA080717
:1047A0002046FEF769FC40EA070894F8360020F03E
:1047B000380084F8360000E029E0334601226C21FD
:1047C000204600F0F6FB40EA080694F837002B4636
:1047D00040F0800084F8370001221E21204600F0BE
:1047E000E8FB3043BBE72046FEF746FC064694F85C
:1047F00037002B4640F0800084F8370001221E214C
:10480000204600F0D6FB40EA06070420A9E094F811
:104810004E00062836D2DFE800F003366E85C7B0BA
:1048200094F837002B4620F0800084F837000122EE
:104830001E21204600F0BDFB054694F835004B468E
:1048400020F0600084F8350001226B21204600F042
:10485000B0FB40EA050794F8340020F0020040F075
:10486000010084F83400022000F0DEFF2046FEF74D
:1048700093FB2046FEF74CFB2046FEF7FDFB322063
:1048800000F0D2FF6CE094F837002B4620F0800057
:1048900084F8370001221E21204600F08AFB0546DD
:1048A00094F83600334620F03F0084F836000122A9
:1048B0006C21204600F07DFB40EA050694F83500A7
:1048C0004B4620F0200084F8350001226B21204661
:1048D00000F06FFB40EA060594F8340020F0020077
:1048E00084F83400022000F09FFF2046FEF7C4FB4E
:1048F00040EA050734E02046FEF7BEFB074694F881
:1049000037002B4620F0800084F8370001221E215A
:10491000204600F04EFB40EA070594F8360020F0F0
:10492000070037E02046FEF737FB80462046FEF7BB
:10493000EFFA40EA08072046FEF79EFB40EA070828
:1049400094F83600334620F0380084F8360001220F
:104950006C21204600F02DFB40EA080628E00746BF
:10496000062084F84E002046FEF7FEF940EA0705CF
:104970002046FEF72BFB284358E52046FEF70CFBAC
:1049800007462046FEF7C4FA40EA070594F83600C9
:1049900020F0380084F83600334601226C2120468E
:1049A00000F007FB2843DAE72046FEF765FB0646E2
:1049B00094F837002B4620F0800084F8370001225D
:1049C0001E21204600F0F5FA3043C8E72DE9F84FE4
:1049D000002491468A460546ADF800402646274603
:1049E000FFF738FA80462846FFF74FFA40EA0808F2
:1049F000284600F05EFD40EA0808012000FA0AF0AF
:104A0000296DB9F1000F01D0014300E08143084650
:104A10002965890701D54FF4804610F0050F01D1B3
:104A2000010701D546F40056C00601D546F41056DC
:104A300031462846FEF720FC40EA0806286D10F0B3
:104A40001D0F00D0012410F0120F01D044F0020419
:104A5000000601D544F02004E00701D04FF4807730
:104A600039462846FEF72FFC40EA060769462846E5
:104A700001F0FCFA40EA0706BDF80020214628466E
:104A8000FFF77AFA40EA06042846FFF75FFA40EAA1
:104A900004062846FFF744FA3043BDE8F88F0000CB
:104AA0002DE9F04780461868184E1D4691460F467E
:104AB000032829DDA6F108020023911E3046FEF7E7
:104AC00013FD29680446A14203DAD8F8A800BDE81E
:104AD000F087B21C0D4E9C3E96F89200000700D560
:104AE000921C0A4940469C3900F0D5F92868021BFF
:104AF0002A6003D005480119FBF703FC36F8920F32
:104B000038807188A9F800100020E0E700400020FC
:104B10002DE9F843002500958046158008681F465A
:104B200016460C46B0F5007F0CDA0D496B4642186C
:104B3000C0F500714046FEF73DFB21680844206047
:104B4000009838B93B46324640462168FEF76EFC75
:104B5000002802D04FF0FF302560BDE8F883000048
:104B6000004000202DE9FF4F8DB093460D988A46F6
:104B700090F84600800770D40BA90D9800F09BF8C0
:104B80000AA90D98FEF774FB57465E464FF48079EC
:104B9000E846109D2FE0102E01D2344600E010248C
:104BA00054FA85F0484503DD54FA85F4A4F5807481
:104BB000BDF82800854211D8291981420EDB224612
:104BC00039466846FBF79DFBBDF828009DF82C1080
:104BD000421B02EB08006B46417000E03B46224658
:104BE00029460D9800F04EFE00283ED1301B86B2BB
:104BF0002819274485B2002ECDD157465E464FF086
:104C0000FF3A109D39E0102E01D2344600E0102406
:104C100054FA85F0484503DD54FA85F4A4F5807410
:104C200005AB224629460D9800F0C1FBBDF82800CF
:104C3000854213D82919814210DB2246394668463D
:104C4000FBF75FFBBDF828009DF82C10421B02EB20
:104C5000080022464170694602E010E022463946CB
:104C600005A8FBF780FB18B1504611B0BDE8F08FE6
:104C7000301B86B22819274485B2002EC3D10020EC
:104C8000F3E710B50C460A46752100F00FFC002131
:104C90006170A17010BD90F8340070474FF49660B9
:104CA0000880704790F84400704790F840007047C3
:104CB0000020014670470A46752100F0F7BBFA282C
:104CC0000AD0B0F5FA7F09D0B0F57A7F08D0B0F5F8
:104CD000FA6F07D00420704700207047012070470A
:104CE000022070470320704738B50C00054601D0FC
:104CF000002020806B4601223A21284600F039F935
:104D000014B19DF8000020806B460122392128460D
:104D100000F02FF9002C05D021889DF8002041EAF1
:104D20000221218038BD00004FF080420021E0E9DF
:104D30002C219FED0A0A8160C160C0F81110C0F8F3
:104D400015100121417441754176C261C26240F87B
:104D50003C2FA0F12B01EC3800F044BC0000000017
:104D60002DE9F8430027894604463E468DF8007039
:104D70001A213430FBF7ECFA94F8460040F00100B9
:104D800084F846007F2084F8360084F84E600020C6
:104D900084F86760052104EB4002401CA2F854101F
:104DA0000628F8D3204600F043FD40EA0705012716
:104DB00084F8357004F135033A466B21204601F042
:104DC0004DF940EA0508606928B194F8390040F0CF
:104DD000100084F8390004F1390301226A212046C9
:104DE00000F0E7F840EA080504F1360301226C21DF
:104DF000204601F033F940EA05086B46012275218F
:104E0000204600F0B6F840EA08054946204600F082
:104E1000ABF828433DD194F8460040F0020084F8F6
:104E20004600204600F065FC804612208DF8000008
:104E30006B4601223821204600F0BBF840EA080505
:104E400084F83F7084F83E700421204600F044FC52
:104E50000321204600F06CFC40EA050301212046B6
:104E600000F046FB40EA03020721204600F037FB32
:104E700040EA02030121204600F051FC40EA03050C
:104E80008DF800606B4601221D21204600F091F84C
:104E90002843BDE8F88370B5B1F8920014460D467A
:104EA0001646400411D5214605F11800FEF7DBFC3B
:104EB000B5F91800C0032862B5F91A00C00368628A
:104EC000B5F91C00C003A41DA862B5F892008004C7
:104ED0000AD5214605F12C00FEF7C5FCA11D05F100
:104EE0003400FEF7CAFC1234B5F89200400504D530
:104EF000A11C2846FEF7C1FC0E3495F8920040062E
:104F000005D5214605F14000FEF7B7FC0C34B5F895
:104F10009200C00508D5D4F80200617900BA20F0EB
:104F2000FF000843A41D6866B5F89400410404D549
:104F300034F8021B49BAA5F86E10800404D534F881
:104F4000020B40BAA5F870000120C5F89800A01B1C
:104F500070BD062906D20122006D8A40024201D0AE
:104F60000120704700207047202340F6DC52FFF7F5
:104F7000F9BD2DE9F04700259946174682462C4693
:104F800001F07F0810E03E1B102E00D9102608EB20
:104F90000400C1B209EB04023346504600F073FA34
:104FA0002843050003D13444BC42ECD32846BDE875
:104FB000F0872DE9FF5F00249A4690468B462546F0
:104FC00001F07F090098FFF766FE0746C00709D188
:104FD0005846FEF7D3F828B101221146009800F098
:104FE00090FA0446B8071CD55846FEF7C7F8C0B17A
:104FF00000220221009800F084FA044311E0A8EB9B
:105000000506102E00D9102609EB0500C1B20AEBE7
:1050100005023346009800F084FC204304001BD1B5
:1050200035444545EBD3B80709D55846FEF7A6F8F1
:1050300028B101220221009800F063FA0443F80726
:1050400009D15846FEF79AF828B1002201210098AC
:1050500000F057FA0443204604B0BDE8F09F00007A
:105060002DE9F74F00272DED028BC6B01646ADF89F
:10507000D0703E97ADF8107120972B971F972F9700
:105080002C9721972D972E97682102A84397FBF71D
:105090005FF9ADF8FC70FFF70BFEDFF84C82DFED37
:1050A000938A0DF5867AC8E902014898C14600F155
:1050B000B00B02AB3FAA3EA94898FFF729FD002894
:1050C0007ED1D8E90245FDE03EAB44AA34A9489818
:1050D000FFF7E6FC002874D1BDF8D000800471D53C
:1050E0004898FFF7E2FD0121814000EE101AB8EE6A
:1050F000C00ADFED7F0A2297239720EE208A2497AB
:105100001C971D972BA81E97FEF7FAFEBDF9AC0061
:105110002290BDF9AE002390BDF9B000249028EE96
:10512000280A35AA22A94898FEF711FC02214898BE
:10513000FFF70FFF60B125AA22A95846FEF7C0FD70
:1051400025A9CDE9001A22462B4602214998B047ED
:105150001CA8FEF7C9FE1C9940F62B3091FBF0F11C
:105160003B911D9991FBF0F13C911E9991FBF0F060
:105170009FED600A3D9038AA3BA94898FEF7E7FBEF
:105180001C9838B11D9828B11E9818B10321C8F891
:10519000001001E0C8F8007000214898FFF7D9FE20
:1051A000B8B11CAA2BA91FA800F0CEFB9FED520A94
:1051B00040AA1FA94898FEF7CAFB40A9224602E070
:1051C0008BE086E02AE0CDE900192B4600214998C2
:1051D000B04703214898FFF7BCFEF8B19DED350AB2
:1051E00025A98DED250A9DED360A22468DED260A6C
:1051F0009DED370A2B468DED270A9DED380A8DED82
:10520000280A9DED390A8DED290A9DED3A0A8DEDAA
:105210002A0ACDE9001903214998B047BDF8D0000A
:10522000400426D51FA8FEF753FE01214898FFF73A
:1052300090FEF0B11CAA1FA95846FEF741FD1C982C
:105240002246C11700EB5140C0131C901D982B46FD
:10525000C11700EB5140C0131D901E98C11700EB01
:105260005140C0131E901CA9CDE9001A0121499894
:10527000B047BDF8D000400524D52DA8FEF71CFE90
:1052800004214898FFF765FEE0B130AA2DA948989F
:10529000FEF73CFD9DED330A22A98DED220A9DED1E
:1052A000300A22468DED230A9DED310A2B468DED05
:1052B000240A9DED320A8DED250ACDE9001904215D
:1052C0004998B047BDF8FC00411EADF8FC10BFF492
:1052D000FBAE3E9800287FF4ECAE46B00020BDEC5B
:1052E000028BBDE8FE8F0000D000002000000038D7
:1052F00000007A4300007A3D0000FA3570B50B4695
:10530000044609680068FEF7D5FC054659686068E0
:10531000FEF7D0FC05449968A068FEF7CBFC054475
:10532000D968E068FEF7C6FC284410601968606818
:10533000FEF7C0FC054659682068FEF7BBFC2D1A35
:10534000D968A068FEF7B6FC2D1A9968E068FEF7E8
:10535000B1FC28445060D9686068FEF7ABFC054694
:1053600099682068FEF7A6FC2D1A1968A068FEF758
:10537000A1FC05445968E068FEF79CFC281A90607F
:105380005968A068FEF796FC0546D9682068FEF7C4
:1053900091FC064699686068FEF78CFC30442D1A33
:1053A0001968E068FEF786FC2844D06070BD2DE9DE
:1053B000F04F87B04FF000051E0091460F46824621
:1053C0002C46009501950295039505D05046FFF7B0
:1053D00062FCC00705D00AE04FF0FF3007B0BDE81F
:1053E000F08F01221146504600F08BF80546380A2E
:1053F0008DF810009AF8C010EB4681422DD00123A1
:1054000004AA6D21504600F08CFA28430500E5D12E
:105410009DF810108AF8C0101FE08DF81470012359
:1054200005AA6E21504600F07CFA2843D6D1A9EB9C
:105430000400102800D9102080469AF8470002285E
:1054400012D0321943466F21504600F01CF8050077
:10545000C4D107EB0800444487B24C45DDD39AF829
:105460004700022803D00CE00BEB0402EAE700201F
:10547000594604E00A5C401C06F8012BC0B24845BE
:10548000F8D32846AAE770B528B1C4689C4204D274
:105490006FF0040070BDAFF30080D0E900452046F6
:1054A000A8470028F6D06FF0020070BD0123FFF777
:1054B000EABF38B505466B4601226A21FFF759FD60
:1054C00004469DF800006B4640F004008DF8000093
:1054D00001226A212846FFF76CFD204338BD0829C8
:1054E00002DB6FF00A00704780F84510002070471B
:1054F000042902DB6FF00A00704780F84210002098
:10550000704770B500250446012902D0022961D1F7
:105510002AE094F8340004F135034FEAC0708AB1F0
:10552000E0BB94F83500012220F0400084F83500FB
:105530006B21204600F092FD054614F8340F40F030
:10554000010043E050B394F83500012240F04000E0
:1055500084F835006B21204600F080FD054614F8E4
:10556000340F20F0010031E094F84600C00731D03C
:1055700094F8340004F136034FEA8070A2B1002899
:1055800028DB94F83600012220F0800084F83600F1
:105590006C21204600F062FD054600E01AE014F898
:1055A000340F40F0020011E0002813DA94F83600BE
:1055B000012240F0800084F836006C21204600F083
:1055C0004DFD054614F8340F20F0020020706420D1
:1055D00000F02CF9284670BD10B51EC9B03080E827
:1055E0001E0010BD30B504462DED028B99B0F0EED3
:1055F000408A002204A88B5600EE903A00EB82030A
:10560000521CF8EEE00A092AC3ED000AF3DB6D46EE
:1056100015A9FEF747FA9FED2D8A002115A8B6EED1
:10562000001A00EB8102D2ED000AF5EEC00AF1EE9D
:1056300010FA01DB012200E0002201EE902AF8EED0
:10564000611A71EEC11A40EE881AFDEEE10A10EE01
:10565000902A45F82120491C0429E2DB01989FED9E
:105660001C0A4042019068EE801A9FED1A0A0298C7
:10567000C1EE800A4042029003984042039020EE1F
:10568000810AF0EE408AFDF75BF820EE080A00255B
:10569000BDEEC00A8DED0D0AB0EE680A0E95FDF75D
:1056A000F7F820EE080A11AA69460DA8BDEEC00A57
:1056B0008DED0F0A109500F0ADF911A92046FFF706
:1056C0008BFF19B0BDEC028B30BD00000000804E96
:1056D000DB0F4940000034C313B501AB9DF8041043
:1056E00080F838104187818701221921FFF761FC7A
:1056F0001CBD1CB504460020009001A92046FFF700
:10570000CDFABDF804106B46080A8DF800008DF83C
:105710000110022270212046FFF74BFC1CBD072917
:1057200002DB6FF00A00704780F8441000207047D9
:10573000042902DB6FF00A00704780F84010002057
:105740007047000070B500248AB00B460546012A58
:1057500004D0022A02D00AB1032A24D10020DFEDAE
:10576000130A694603EB800292ED000A20EE200A3C
:10577000BDEEC00A10EE102A41F82020401C092876
:10578000F0DB05F1C1010A466B46002053F82060AA
:10579000B6171654401CC0B20928F7D328469FED0F
:1057A000040AFFF71FFF0AB0204670BD0000804EBC
:1057B00000000000F8B506460020ADF800000446E1
:1057C00006EB4100A0F854203046FEF743FB0746A5
:1057D0003046FEF75AFB40EA07053046FFF769FE00
:1057E00040EA05076946304600F040FC316D40EA6A
:1057F000070511F01D0F00D0012411F0120F01D088
:1058000044F00204BDF8002021463046FEF7B4FB08
:1058100040EA05043046FEF799FB40EA04053046AD
:10582000FEF77EFB2843F8BDFBF77AB8FBF778B8A4
:1058300070B50546802085F8350005F135034FF435
:105840007A741E4601226B21284600F007FC0028CE
:1058500011D13220FFF7E8FF2846012332466B21A1
:10586000FFF711FE002806D10120FFF7DDFF641EBF
:1058700002D56FF0030070BD95F835004028EBD1DC
:10588000002070BD2DE9FC474FF000055FEA0309D9
:1058900090460E4682462C4605D05046FFF7FBF94F
:1058A000C00704D009E04FF0FF30BDE8FC870122BB
:1058B00011465046FFF725FE0546300A8DF80000D8
:1058C0009AF8C010814228D001236A466D215046C3
:1058D00000F027F828430500E7D19DF800108AF86A
:1058E000C0101AE08DF80460012301AA6E21504611
:1058F00000F017F82843D8D1A8EB0407102F00D9DF
:10590000102709EB04023B466F21504600F009F8CE
:105910000500CAD1F0193C4486B24445E2D328467A
:10592000C3E770B528B104699C4204D26FF004004B
:1059300070BDAFF30080056884682846A047002842
:10594000F6D06FF0020070BD7EB54FF0FF33B0B1FE
:10595000A9B1A2B100236D4652F8234004EB4406DE
:1059600006EBC40445F8234031F91360C4EBC63498
:1059700040F823405B1C032BEEDB00207EBD184665
:105980007EBD000008B50AA21268009241B9F42158
:105990008DF8001009218DF801105C218DF802109E
:1059A0006B46032240F64711FFF76CFF08BD00006D
:1059B000A3A3A3000A4A08B51268009241B9F421D2
:1059C0008DF8001009218DF8011085218DF8021045
:1059D0006B46032240F66A11FFF754FF08BD000032
:1059E000B05900080A4A08B51268009241B9F4217A
:1059F0008DF8001009218DF8011016218DF8021084
:105A00006B4603224FF41061FFF73CFF08BD000016
:105A1000B059000830B50B46044609680068FEF727
:105A200049F9054659686068FEF744F92D1A9968E6
:105A3000A068FEF73FF92D1AD968E068FEF73AF939
:105A4000281A106059682068FEF734F9054619686D
:105A50006068FEF72FF90544D968A068FEF72AF9B7
:105A600005449968E068FEF725F9281A506099689E
:105A70002068FEF71FF90546D9686068FEF71AF935
:105A80002D1A1968A068FEF715F905445968E068F1
:105A9000FEF710F928449060D9682068FEF70AF9EB
:105AA000054699686068FEF705F905445968A068DD
:105AB000FEF700F92D1A1968E068FEF7FBF8284494
:105AC000D06030BDFBF732F8FCF716F9FCF708F8A8
:105AD000FCF770F8FDF728FEFBF7E4FF00F00EF886
:105AE000FEE701460020842900D0C81C704710B58D
:105AF00000B9012000F04AFC002010BD10B500F0F4
:105B00006BFC002010BD10B500F084FD012803D00F
:105B1000BDE8104000F03CBD10BD3EB504460D464A
:105B2000B0F90800FFF7DDFF02A9CDE90001208AE6
:105B30002B4682B2D4E9001000F040FD012801D0CC
:105B400000203EBD02983EBD2DE9F041184E0F46A3
:105B50000446F5683068001D00F061FB38B9306814
:105B600090F82C1001208840316981433161601C1C
:105B700007D137B13168BDE8F0410E48091D00F08A
:105B800086BB30682C44AC424460316805D2B06BAF
:105B9000BDE8F041091D00F062BB706B091D00F00B
:105BA0005EFBB06A844200D2B462BDE8F0810000BE
:105BB00058000020543E00202DE9F041054600F039
:105BC00073FB2E4EB068401CB06030682C4F10B193
:105BD000706940B32DE03560B068012829D10024F8
:105BE00004EB840007EB800000F02BFB641C072C07
:105BF000F6D323488C3000F024FB2148A03000F07D
:105C000020FB1F48B43000F01CFB1D48C83000F0DA
:105C100018FB1B48DC3000F014FB19488C30706313
:105C20001430B06305E03068E96AC06A884200D881
:105C30003560706A0121401C7062E86A32698140F7
:105C40001143316100EB800007EB8000291D00F05B
:105C50001EFB00F049FB706900280CD03068E96A2F
:105C6000C06A884207D207494FF080500860BFF3EE
:105C70004F8FBFF36F8FBDE8F08100005800002008
:105C8000783D002004ED00E070B5124E124D1CE08E
:105C900000F0D6FB306820B1002400F02DFDA4B93F
:105CA00001E00124F9E700F0FFFAF068C468201D64
:105CB00000F0B5FAA868401EA8606868401E6860D9
:105CC00000F012FB204600F009F868680028DFD1D8
:105CD00070BD0000403E00205800002010B5044672
:105CE000006B00F015FB2046BDE8104000F010BB33
:105CF00010484FF47051420706D0C01D0D4920F0E6
:105D00000700411AC1F570510B4A00230144C2E952
:105D100000030839103A21F0070111604B600B6055
:105D20000B1AC0E9001393604FF000405360D0603D
:105D3000704700007801002044000020074E4FF01B
:105D40008054074DFFF7A0FF30680128FAD92C6076
:105D5000BFF34F8FBFF36F8FF4E70000783D002053
:105D600004ED00E02DE9F0479A46DDE9098481461B
:105D70006FF00303206B03EB82021044089D20F0B8
:105D80000706700707D0502080F31188BFF34F8FAC
:105D9000BFF36F8FFEE723180A5C83F834200A5C98
:105DA00012B1401C1028F6D3002784F84370072D49
:105DB00000D30625E562C4E91157201D00F04CFA16
:105DC00004F1180000F048FA2461C5F1070064628C
:105DD000A061E76484F8507052464946304600F0AE
:105DE000BFF82060B8F1000F01D0C8F80040BDE84E
:105DF000F087000030B5114900E011460A68824280
:105E0000FBD34B685C18844203D140681844486057
:105E1000084643681C18944209D1084C103C246879
:105E2000A24209D052681A4442600A6812680260AD
:105E3000814200D0086030BD0460F9E744000020D2
:105E40000648416B096829B1416BC968C96849684E
:105E5000816270474FF0FF31FAE7000058000020E0
:105E600008484068401C4FF0500080F3118804D06F
:105E7000BFF34F8FBFF36F8FFEE7BFF34F8FBFF3BB
:105E80006F8FFEE74C0000202DE9F041054600260B
:105E900000F0D6FA314F386808B9FFF729FFF868E3
:105EA00005424BD1C5B3083568070ED005F0070091
:105EB000C0F108000544680707D0502080F311881E
:105EC000BFF34F8FBFF36F8FFEE72DB37868854226
:105ED00034D8224910310846046801E021460446BE
:105EE0006068A84202D220680028F7D1386884424E
:105EF00024D00E682068086060680836411B1029AD
:105F00000FD96019420708D0502080F31188BFF3E1
:105F10004F8FBFF36F8FFEE710E041606560FFF7C2
:105F200069FF61687868401A7860BA68904200D268
:105F3000B860F86801430020C4E9000100F0DCFB10
:105F4000700707D0502080F31188BFF34F8FBFF345
:105F50006F8FFEE73046BDE8F0810000340000207E
:105F600010B5031F4FF080741C601B1F21F001014E
:105F70001960191F044B0B6014390A60091F6FF078
:105F8000020244380A6010BD615E000810B50024AA
:105F9000010030480BD0017809B1204610BD012125
:105FA000017002212C48FEF7D4FFE0B121E000216E
:105FB00001700A4601212848FEF708FD0446002228
:105FC00002212548FEF702FD044400221146224822
:105FD000FEF7FCFC0444002203211F48FEF7F6FCF8
:105FE000044400222CE0012202211B48FEF7EEFCB3
:105FF000044600211848FEF7ACFF28B90122002111
:106000001548FEF7E3FC044403211348FEF7A1FF03
:1060100028B9012203211048FEF7D8FC04440121CD
:106020000D48FEF796FF28B9012211460A48FEF7EF
:10603000CDFC044404210848FEF78BFF28B9012257
:1060400004210548FEF7C2FC04440348FDF758FC50
:10605000A3E7000094000020683E002030B41C46F6
:106060001346224630BCC9B2FFF75BBC2DE9F84F9E
:10607000002605468DF8006090F850008A463746A5
:1060800010F0120F14D06B4601221D212846FEF796
:1060900070FF04469DF800006B4620F008008DF864
:1060A000000001221D212846FEF783FF40EA040676
:1060B00095F8500010F01D0F2DD06B4601221B21CA
:1060C0002846FEF756FF40EA06049DF800006B469E
:1060D00020F003008DF8000001221B212846FEF766
:1060E00068FF40EA04066B4601221A212846FEF7A3
:1060F00040FF40EA06049DF800006B4620F00700D0
:1061000040F001008DF8000001221A212846FEF718
:1061100050FF40EA0406286D10F0120F02D110F073
:106120001D0F3DD04FF6FF782048052144464FF023
:1061300001090EE042782B6D09FA02FC13EA0C0FFC
:1061400006D005EB4202B2F85420944200D914461E
:10615000801C491EEED2444522D04FF47A78B8FB19
:10616000F4F14FF0C809B9FBF1F0401E02B2052767
:1061700000212846FDF7AEF8B8FBF4F1B9FBF1F0C9
:10618000401E02B201212846FDF7A4F8B8FBF4F145
:10619000B9FBF1F0401E02B205212846FDF79AF83E
:1061A000AAF800703046BDE8F88F0000D9750008E5
:1061B00000B52DED048B83B041EC190BFAF75CFBB5
:1061C00041EC180B18EE100A18EE901A8DED008BAA
:1061D000002818BF0120084320F00040C0F17F6074
:1061E00000F1E040C00F14D019EE101A19EE900A19
:1061F0008DED009B002918BF0121084320F00040CD
:10620000C0F17F6000F1E040C00F04BF0120FCF747
:10621000A5FD51EC180B03B0BDEC048B00BDD0E91B
:10622000013201699A60D0E901235A604A688242CA
:1062300001D182684A60002202610868401E08603D
:10624000704700F108014FF0FF32C0E90112C16050
:10625000016100210160704700210161704730B584
:106260000C68621C02D000F1080202E0026904E03E
:106270001A4653681D68A542FAD953684B60996065
:106280008A60516008610168491C016030BD426844
:106290004A6093688B6093685960916008610168F7
:1062A000491C016070470000502080F31188BFF343
:1062B0004F8FBFF36F8F0A494868401C4860012820
:1062C0000CD10848006810F0FF0F07D0502080F371
:1062D0001188BFF34F8FBFF36F8FFEE77047000049
:1062E0004C00002004ED00E00849486828B1401E39
:1062F000486001D180F311887047502080F31188E5
:10630000BFF34F8FBFF36F8FFEE700004C000020FC
:1063100070B5002827D0144DA0F108046068E96822
:10632000084207D1502080F31188BFF34F8FBFF38D
:106330006F8FFEE722683AB1502080F31188BFF3D7
:106340004F8FBFF36F8FFEE78843606000F078F8EF
:1063500060686968084468602046FFF74BFDBDE847
:10636000704000F0C9B970BD3400002006484FF4F9
:106370007A710068B0FBF1F14FF0E020491E4161F5
:1063800007210161704700003000002010B50200B5
:1063900014D00F48006B38B1502080F31188BFF340
:1063A0004F8FBFF36F8FFEE700F04AF800211046D1
:1063B000FFF7CAFB00F0A0F9002807D105494FF00C
:1063C00080500860BFF34F8FBFF36F8F10BD000088
:1063D0005800002004ED00E01CB515480024CDE96C
:1063E00000402346802213A1144800F0E7F801285A
:1063F00009D0401C1AD1502080F31188BFF34F8F71
:10640000BFF36F8FFEE7502080F31188BFF34F8FEB
:10641000BFF36F8F06484FF0FF312C3881620121A6
:106420004161C460BDE81C4000F040B81CBD0000E4
:106430008400002049444C45000000003D5D0008F8
:106440000248016B491C016370470000580000209E
:10645000144A106B10B10120D06170470020D06148
:1064600010691149B0FA80F0C0F11F0000EB800004
:1064700051F820306BB101EB800000F10803416856
:1064800049684160994201D149684160C86810601B
:106490007047502080F31188BFF34F8FBFF36F8F89
:1064A000FEE7000058000020783D00201CB533486E
:1064B0000168334A914207D1502080F31188BFF31D
:1064C0004F8FBFF36F8FFEE700682D49491E88424A
:1064D00007D1502080F31188BFF34F8FBFF36F8F28
:1064E000FEE7284908780190FF20087008788DF8A9
:1064F00000009DF800009DF8002000F0F0009042A0
:1065000007D0502080F31188BFF34F8FBFF36F8FF8
:10651000FEE79DF800001C4A00F0500010700720B4
:10652000906007E09068401E90609DF80000400079
:106530008DF800009DF800000006F3D4107A0002E8
:1065400000F4E0609060019808700C482030016809
:1065500041F470010160016841F070410160FFF792
:1065600005FF00205060F9F739FE0848016841F046
:1065700040410160F9F722FE00201CBD00ED00E063
:1065800071C20F4100E400E04C00002034EF00E055
:1065900010B5502080F31188BFF34F8FBFF36F8F7A
:1065A00000F046F818B104494FF080500860002010
:1065B00080F3118810BD000004ED00E02DE9FF5FBD
:1065C0008346DDE90E87994616468A469000FFF716
:1065D0005BFC05001AD05420FFF756FC040012D0D3
:1065E00025630021CDE90241CDE900874B463246C3
:1065F00051465846FFF7B6FB2046FFF7DDFA01206B
:1066000004B0BDE8F09F2846FFF782FE4FF0FF3050
:10661000F6E700000548416919B1006B18B1002088
:10662000704701207047022070470000580000208A
:106630002DE9F0412E4F0026386B40B1B869401C5F
:10664000B861F86900B101263046BDE8F081FD6807
:106650006D1CFD6013D1786B006838B1502080F359
:106660001188BFF34F8FBFF36F8FFEE7786BB96B65
:106670007963B863386A401C3862FFF7E1FBB86A97
:10668000DFF87080854209D3786B006880B1786B41
:10669000C068C468606885420DD2B8623868C06A54
:1066A00000EB800158F821000128CAD90126C8E76B
:1066B0004FF0FF30F1E7201DFFF7B1FDA06A18B1E0
:1066C00004F11800FFF7ABFDE06A01213A6981404F
:1066D0001143396100EB800108EB8100211DFFF7B8
:1066E000D6FDE06A3968C96A8842CDD30126CBE776
:1066F00058000020783D00202DE9F0472C4D002463
:106700002746286B38B1FFF7CFFD286B401E286362
:10671000286B40B146E0502080F31188BFF34F8FC3
:10672000BFF36F8FFEE7A86822490126D0B3A1F11D
:10673000B4098846D8F80010E9B1D8F80C00C4684C
:1067400004F11800FFF76BFD201DFFF768FDE06AFC
:106750002A6906FA00F11143296100EB800109EB77
:106760008100211DFFF793FDE06A2968C96A88420C
:10677000E0D3EE61DEE70CB1FFF762FBAC693CB140
:10678000FFF756FF00B1EE61641EF9D10020A86149
:10679000E86938B10849012738070860BFF34F8F0F
:1067A000BFF36F8FFFF7A0FD3846BDE8F08700000C
:1067B000580000202C3E002004ED00E00477000883
:1067C000EB1C00080000000000000000800000003A
:1067D000F87600087D1900080300000000000000A2
:1067E000000400000000000000000000010203049B
:1067F00006070809000000000102030498000000D9
:106800000400000000000000000000000400000080
:1068100000010B10E4000000000050000A06B881DF
:10682000A1E189B27837F85A9CCFDD853B000000A2
:10683000001FDBE2B93B7B117B3257837B01F019F0
:10684000804000000002CAE3093E800000200000F2
:1068500000000000004000000060000000000C008C
:1068600000000C186E000006920A16C0DF0000003F
:10687000000000000200000004000000070000000B
:1068800000FFFF0B2B00001657000003590000000B
:106890000000001DFA00026C1D00007BCF400000CC
:1068A00000000000000000000000000000366666E6
:1068B00066000000003F8000000080000000000033
:1068C00000000000000000000000000000000000C8
:1068D0000008000000008000000800000000000028
:1068E00000000000000051EB853FAE147B00280043
:1068F0000000000000000000000000000000010097
:106900000000000000000000000000000000001077
:1069100072000000400000000000000000000000C5
:1069200000000000C8FFFF00010006000100000099
:1069300000000003E800800000000000C800000024
:10694000000000000000010005000000FF08000238
:1069500000040001008000700020004000000000E2
:1069600000000000030000000000000098000B5D24
:10697000170000000000000000000000000035A12A
:10698000090000000000000000000000000000807E
:1069900000000000000000B26A00000000000000DB
:1069A00000000000000000000000000000040000E3
:1069B00000000000000000000000000000200000B7
:1069C0000000000000000000000000000000333361
:1069D0003300000000000000000000000000000084
:1069E000000147AE143EB851EC000F00000000005B
:1069F0000000000000000000000000000000000097
:106A0000140028000000000000000000000000004A
:106A100000066666663999999A000C8000000000AD
:106A200000000000000000000000000000001B004B
:106A300000000000000000000000000000000674DC
:106A4000AA0000000000000000000000000E412825
:106A500014C5AF3EF259D94A5FC236D95100000081
:106A60000000000000000000000000000000000026
:106A70000000000000000000000000000000000016
:106A800000000000000005000500050005000000F2
:106A900000000000000000000000000000001B00DB
:106AA0000000D9E83E38000000300000000000007F
:106AB00000000000000005000500050005000000C2
:106AC00000000000000005000500050005FFE500CE
:106AD00000000000000000000000000000000000B6
:106AE0000100000000000100000000000000018023
:106AF0000000018000000180000011CCF7000000C0
:106B0000000000000000050010004B003C000000E9
:106B1000000000000000000000000000000D28B28E
:106B200044CA7EB5A45369D8FFC4FCBC5F00000012
:106B30000000000000000000000000000000000055
:106B4000001000000000000000000000080000002D
:106B50000000000000000000000000000000000035
:106B6000100000003C0000000000000000000000D9
:106B700000000000000020318800004000000000FC
:106B800003000000030000000000000000400000BF
:106B900000000000000000000000000000000000F5
:106BA00000000000000000000000000002000000E3
:106BB00000000000000000000000000000000000D5
:106BC00000677DDF7E72902E554CF6E6880000004F
:106BD00000000000000000000000000000000000B5
:106BE00000000000000000000000000000000000A5
:106BF000000000000000000000000000000028006D
:106C00000000000000400000000000000000000044
:106C10000000000000000000000000000000000074
:106C2000000000000000000600000000140000004A
:106C3000000000000000000000004778A2000000F3
:106C40000000000000004000000004000000000000
:106C50000000000000000000000000000100000033
:106C60000000000000000000000000000000000024
:106C70000000000000000000000000000000000014
:106C800000000000000000000000000000D8B0B5C7
:106C9000B9F3A6F8F9D1D98196F8F73ED8F3B186C1
:106CA00096A331D1D9F404D7D8F39831D1D9F404CB
:106CB000D7D8F1FFD8F38C9879D1D9F404ECD8F374
:106CC00069D1D9F404ECD8F1FFD8D8F3B492FCC25E
:106CD00003DAB9ACDEDBFCC010B9ACDED8F7B8B073
:106CE000B4A2829B1FBEF380A7D0C2F1BCBDA68612
:106CF000963218F7A587974B851AF8F9D187A7C55B
:106D0000D9F4052CD8F7A55AF9F3BEBEBCBCBDBD5D
:106D1000DAF40543F3B187DDC4B082C2DCB9ACF864
:106D2000D8F3B8B0B4A2F9D982C6D892FCC200D9BF
:106D3000A2DEF9D8B3B7BB8E9EAEF132F51BF1B42B
:106D400092FCC00CD9F40587D8FCC008D90624D819
:106D5000FCC004D9076BD8FCC000D90888D8FCC097
:106D600010D909F3D8F1B4B8B08097F1A9DFDFDF0B
:106D7000AADFDFDFF2AAC5CDC7A90CC92C97F1A9FC
:106D8000892646669FA92E4E6EB28999A92D557DFA
:106D9000B08AA896365676D8F1BE88A0C3C5C7BCBF
:106DA000BDA182C0A092118190A1F024084410647A
:106DB000189081F1A829557DA1889802F02850F5F6
:106DC000A3819128547CF1A8849161A4DADEDFDBF1
:106DD0008593A5F5606870F1DAA4DFD9A4FAA884D8
:106DE00094DB31A4D9DEF8DF81BEBEBBADF1F1F199
:106DF000BED8F1BCBCBDBDBEBED8F3B8A2F8F9DAAE
:106E0000FFD8F1B9A9DFDFDFB080F2A9C1C9C3F1B2
:106E1000B18DB599A90E161EAE2D557DF58E9EAE7F
:106E20002C547CF0B08D9FAF4C9E689F549E709FF9
:106E30005C9E78F1B189ADC3C5C78F9FA32C547CEC
:106E40008393A32C547C8EA30E161EBAA3DE8F93BD
:106E5000AB49DB69A3DEF8D8AB39DB59A3DEF8D840
:106E6000AB31DB71A3DEF8D8F1B089B9A3C3C5C7D4
:106E7000B181B497A311B593A1F02408441064180C
:106E8000F19381A32D557DF2A6FAF9D1D9F8F183BA
:106E9000A2C3C5C7D8F3A2DEF18293A32D557D838B
:106EA00095F5A330D9F3A2F8D8F5A350D9F3A2F8F9
:106EB000D8F5A370D9F3A2F8D8F2B9A2F8F9D1D9CC
:106EC000A6DEDFF40708D8F2A6F8F9D1D9F4070A4C
:106ED000D8F2F9D1D9F8F4071ED8F2F9D1D9F8F8D7
:106EE000F4071CD8F4071AD8F3A2F8F9D1DAF2A6FD
:106EF000F8F1A5DED8F4A307310733D8F1A5F8A33C
:106F0000859509D9F1A5DEF2A6F8DFD8F4A3073DEF
:106F1000D8F3A2F8F9D1F4D907520750D8F1BAA39F
:106F2000F8F9D1B9D9F442F2A2DEF4075E0763D8CA
:106F3000F1A5F8A3859519DAF40763D8F2A6DEDF88
:106F4000D8F3B8A2F8F9DAFFD8F1B8AAB38DB4989B
:106F50000D355DB2B6BAAF8C96198F9FB8A80E16D4
:106F60001EB49AAA882C547CD8F1B8B4B0AF8999D1
:106F700002F08B9B00F18F9F00000000A845AFD965
:106F8000C4D8A81DAFD9C6D886F197A8318F9B0663
:106F90009907AB869728889BF00C201440F18BABA7
:106FA0002C28282854505050D8B0B4B8F0A88A9A49
:106FB000285078B79BA82470594469386448312D0B
:106FC0005179F1BBAB88002C547CF0B38BB8A8048A
:106FD000285078F1B088B49726A85998BBABB38BEA
:106FE00002264666B0B8F08A9CA82470598B2058B7
:106FF0008A4469388B39408A6448318B30498A2DFC
:1070000051798B295188F1AC002C547CF08CA80468
:10701000285078F1889726A85998AC8C02264666A5
:10702000F0899CA82470594469386448312D5179FD
:10703000A988F10BF0205970ABF113F0384069A822
:10704000F11BF03148608CA83C415C207C00F1874A
:10705000981986A86E767EA999882D557DD8F3B8A3
:10706000A2F8F9DAFFD8F1B38BB497BBABF8F9B952
:10707000A3DAC3C5C7D92D4D6DD8B08CB8ACF8F91B
:10708000A8DAC3C5C7D92D4D6DD8F1B1B6B9A8F8E6
:10709000F3B9AAFAF9D1DAF28ACAF408CEF3B187C1
:1070A000DDC2C2F18CC4DCF3B9ACF8D8F2B2B6BA26
:1070B000ADFA8D9DAB39D9ADDFF408F2DDF2B187C1
:1070C000B59A0808F1B183C2C4C6DCF3B9ACF8D8EC
:1070D000F3B2B6BAADF88D9DAB11D9ADDEF4091699
:1070E000DDF2B187B59A2828F1B088C2C4C6DCF3B6
:1070F000B9ACF8D8F3B2B6BAADFA8D9DAB39D9AD0B
:10710000DFF40939DDF3B187B59A08F2F288C2C419
:10711000C6DCF3B9ACF8D8F2B2B6BAAEF88E9EAB14
:1071200011D9AEDEF4095CDDF3B187B59A68F2B02F
:1071300080C0C8C2DCF3B9ACF8D8F2B2B6BAAEFAC5
:107140008E9EAB39D9AEDFF40985DDF2B187B59AF1
:1071500068F2B080C4CCC6F1B38DC0C2C4DCF3B950
:10716000ACF8D8F2B088B9A8C3C5C7B1B5B9F3AC0B
:10717000FAF9D1DAF409ACD8F3ACF8F9D1DAF1B90B
:10718000AADFF409C7D9F409C9D8F3ACF8F9D1D901
:10719000F409D7D8F28CACF8F9D1D9C2D8F2F9D920
:1071A000DEF409D309EA09E3DAF2DDC6DCF409BF4B
:1071B000F1B9AADFD8F1ABFA8B9BA369D9F409EB3B
:1071C00009EBDAF1B9ABDFFED8F3B8A2F8F9DAFFD0
:1071D000D8F1BBB3B7AAF9DAFFD9809AAA28B4804C
:1071E00098A720D8B787AAD0C1A781976293F071DA
:1071F000716085940129517990A5F1284C6C870C18
:1072000095188578B0B4B88798A520839522B79350
:10721000F03131208EB4940129517997AEF1284C88
:107220006C850C9E188E788798A520839522B7933D
:10723000F0313120B281B494019529517997BAA1E6
:10724000F1284C6CB0850CB69118B28178B087B437
:1072500098BAAB20B286B69B02B793F011110084A6
:10726000B69701295179B497A4F1284C6C8B0CB6D0
:107270009418B28478BBA3B383B790284C6C8A6C03
:10728000D8F2B083B493B8A371D9D0F8F58E9EB973
:10729000A378F1B18AB59345B28C2EB18A5483AAF2
:1072A000D0C6F5B281B691A378F1B18AB59365B233
:1072B0008C2EB18A7483AAD0C7D8F2B083B8A5C681
:1072C000F9A3B49541D9F1B18ABAA6C5C7B2B6B986
:1072D0008696A350B183B593042CF3B8A3D0F8F9E4
:1072E000D1DBF1B69CB9A3D056D8F2B083B495B82F
:1072F000A341DBF39749F1B183B69CB9A3D05ED823
:10730000F2B083B8A3B49541D9F3A3D0DEF8F1B1BC
:1073100083B696B9A3DB698A09F3B8A3D0DEF2ADD0
:10732000DFF1B386BAA0C0D8F2B083B8A3B4954158
:10733000D9D0DED8F3BBB3B790A28200F210F1B27D
:1073400082B59BBAA2D064F2B382ABC2F8F9D1F194
:10735000B9A4D9DEDAF8D8F2BBAF80B792508F0D5E
:10736000DBF1B184B59421D9F5B385B795B9A3788C
:10737000F1B180B590A01AF09340F5B284B694A311
:1073800078F1B180B590A03EF09340D8F1B9A3D088
:10739000DFB08DB590B9A30AB1809305D9D0F8D8E4
:1073A000F2B380B792BBAF50F88F0DDBF1B184B56B
:1073B00094B9A321D0FAD8F1B9A3D0FAF9D1D9F16F
:1073C000B284BBA8D0C4C7F3B9A4D0DEDAF1B385C8
:1073D000BBA8D0C4C7F3B9A4D0DEF8DFF8D8F3B1A6
:1073E00084B790B9A369DBB380B59411D9F2A4D066
:1073F000DED8F2BBAFB792B3821980A2D926F3A729
:10740000D0DFD8F1AF899819A980D938D8AF893998
:10741000A980DA3CD8AF2E88F575DAFFD87180A93B
:10742000DAF1FFD882A7F3C1F280C2F19786492E24
:10743000A6D0509686AF75D988A2D0F3C0C3F1DA32
:107440008F96A2D0F3C2C382B4937878F1D880B774
:1074500090AF0D8999AF10809F21DA2ED88999AF0E
:107460003180DA2ED8AF8292F34180F1D92ED8AF95
:1074700082F31980F1D92ED8F18990AFD0098F9974
:10748000AF51DB8931F3829219F2B184B59471D98D
:10749000F1DFF9F2B9A4D0F8F8F3DFD8B3B7BB82C3
:1074A000ACF3C0A28022F1A922269FAF29DAACDE7C
:1074B000FFD8A2F2DEF1A9DFF3B8A3D0F8F9D1D951
:1074C000FFD8F2B2B6BAA2D0DEF8F1B08790ABD056
:1074D0007EB280B796AB018BB692AB05DB829B790F
:1074E000F3B184B49749F2A2D0F8D8F3B9A4D0F894
:1074F000F9D1D9F2BAA2D0F8D8B3B7BB978CAFF311
:1075000079DAF1F1F1F1B188B9ACD0C0B3F3F3F3AA
:10751000B9AAFAF1BBAAD0F8F40D4ED8F3A7D0FA65
:10752000978CAF79DAF1879AAAD070D8F28292AFAD
:1075300031D9F1DEB282B692CCB38FB796A600AC49
:107540008C9C0C30DBB2B6BA8292AB39F3B184B406
:107550009749D9F1B2B68090A0D05EF09238D8F1B8
:10756000B282BAABC6F3B9A4D0F8F9D1D9F18BB4D1
:1075700097BAAB02D8F2B382B792BBAF31D9F1B2AE
:10758000B6BA8393A3D05EF09B20F1BBACDED0DE15
:10759000BAA2D0DFF1FFD8F3B9A4D0F8F9D1D9F26B
:1075A000BBA2FAF8DAF2BBA2FAD8F2B3B7BB809268
:1075B000AF49D1D9F1B9A4DEA0DEDFD8F18C9CBBF4
:1075C000ACD010ACDEBAA2D0DFBB9282AFF1CAF26F
:1075D00035F1968FA6D900D8FF04002A012B02109E
:1075E000030F040000000000555555555555C53F83
:1075F0007D6FEB0312D6D4BF5544880E55C1C93FE9
:107600003B8F68B52882A4BF88B20175E0EF493F7F
:1076100009F7FD0DE13D023F4B2D8A1C273A03C0BF
:10762000C88A599CE52A004059018D1B6C06E6BFAB
:1076300082922EB1C5B8B33F4FBB610567ACDD3F49
:10764000182D4454FB21E93F9BF681D20B73EF3F89
:10765000182D4454FB21F93FE2652F227F2B7A3C01
:10766000075C143326A6813CBDCBF07A8807703CBA
:10767000075C143326A6913CC4EB98999999C9BF2D
:10768000711623FEC671BCBF6D9A74AFF2B0B3BF62
:107690009AFDDE522DDEADBF2F6C6A2C44B4A2BF22
:1076A0000D5555555555D53FFF8300922449C23F8E
:1076B0006E204CC5CD45B73F513DD0A0660DB13FC2
:1076C000EB0D76244B7BA93F11DA22E33AAD903FD4
:1076D0000000000000000000000000006E83F9A21E
:1076E0002915444ED15727FCC0DD34F5999562DB4E
:1076F0004190433CAB6351FE494D555461736B4E11
:10770000616D650064656661756C745461736B00CE
:107710003077000800000020E40000003C2D000845
:1077200014780008E40000201C9100004C2D000893
:107730000000000000000000000000000000000049
:107740000000000000000000000000000000000039
:107750000000000001000000100000000000000018
:107760000024F40000000000000000000000000001
:107770000000000000000000000000000000000009
:10778000AAAAAAAA00000000000000000000000051
:1077900000000000000000000000000000000000E9
:1077A00000000000000000000000000000000000D9
:1077B00000000000000000000000000000000000C9
:1077C0000000000000000000A00F0000D007000033
:1077D000204E0000042021100F2400000000803FF4
:1077E0000000000000000000000000000000803FDA
:1077F0000000000000000000000000000000803FCA
:107800000000000000000000000000000000000078
:047810000000000074
:040000050800018965
:00000001FF
